{
  "address": "0xE08cEE27Cfa6F9c2F92Fd9cc6b7206282787f282",
  "abi": [
    {
      "inputs": [
        {
          "internalType": "contract OracleMock",
          "name": "_oracle",
          "type": "address"
        }
      ],
      "stateMutability": "nonpayable",
      "type": "constructor"
    },
    {
      "anonymous": false,
      "inputs": [
        {
          "indexed": true,
          "internalType": "address",
          "name": "maker",
          "type": "address"
        },
        {
          "indexed": false,
          "internalType": "uint256",
          "name": "newNonce",
          "type": "uint256"
        }
      ],
      "name": "NonceIncreased",
      "type": "event"
    },
    {
      "anonymous": false,
      "inputs": [
        {
          "indexed": true,
          "internalType": "address",
          "name": "maker",
          "type": "address"
        },
        {
          "indexed": false,
          "internalType": "bytes32",
          "name": "orderHash",
          "type": "bytes32"
        },
        {
          "indexed": false,
          "internalType": "uint256",
          "name": "remainingRaw",
          "type": "uint256"
        }
      ],
      "name": "OrderCanceled",
      "type": "event"
    },
    {
      "anonymous": false,
      "inputs": [
        {
          "indexed": true,
          "internalType": "address",
          "name": "maker",
          "type": "address"
        },
        {
          "indexed": false,
          "internalType": "bytes32",
          "name": "orderHash",
          "type": "bytes32"
        },
        {
          "indexed": false,
          "internalType": "uint256",
          "name": "remaining",
          "type": "uint256"
        }
      ],
      "name": "OrderFilled",
      "type": "event"
    },
    {
      "inputs": [],
      "name": "DOMAIN_SEPARATOR",
      "outputs": [
        {
          "internalType": "bytes32",
          "name": "",
          "type": "bytes32"
        }
      ],
      "stateMutability": "view",
      "type": "function"
    },
    {
      "inputs": [],
      "name": "LIMIT_ORDER_TYPEHASH",
      "outputs": [
        {
          "internalType": "bytes32",
          "name": "",
          "type": "bytes32"
        }
      ],
      "stateMutability": "view",
      "type": "function"
    },
    {
      "inputs": [
        {
          "components": [
            {
              "internalType": "uint256",
              "name": "salt",
              "type": "uint256"
            },
            {
              "internalType": "address",
              "name": "asset",
              "type": "address"
            },
            {
              "internalType": "address",
              "name": "underlyingAsset",
              "type": "address"
            },
            {
              "internalType": "address",
              "name": "maker",
              "type": "address"
            },
            {
              "internalType": "address",
              "name": "receiver",
              "type": "address"
            },
            {
              "internalType": "address",
              "name": "allowedSender",
              "type": "address"
            },
            {
              "internalType": "uint256",
              "name": "fixedTokens",
              "type": "uint256"
            },
            {
              "internalType": "uint256",
              "name": "variableTokens",
              "type": "uint256"
            },
            {
              "internalType": "bool",
              "name": "isFixedTaker",
              "type": "bool"
            },
            {
              "internalType": "uint256",
              "name": "beginTimestamp",
              "type": "uint256"
            },
            {
              "internalType": "uint256",
              "name": "endTimestamp",
              "type": "uint256"
            },
            {
              "internalType": "int128",
              "name": "t",
              "type": "int128"
            },
            {
              "internalType": "bytes",
              "name": "makerAssetData",
              "type": "bytes"
            },
            {
              "internalType": "bytes",
              "name": "takerAssetData",
              "type": "bytes"
            },
            {
              "internalType": "bytes",
              "name": "getMakerAmount",
              "type": "bytes"
            },
            {
              "internalType": "bytes",
              "name": "getTakerAmount",
              "type": "bytes"
            },
            {
              "internalType": "bytes",
              "name": "predicate",
              "type": "bytes"
            },
            {
              "internalType": "bytes",
              "name": "permit",
              "type": "bytes"
            },
            {
              "internalType": "bytes",
              "name": "interaction",
              "type": "bytes"
            }
          ],
          "internalType": "struct OrderMixin.Order",
          "name": "order",
          "type": "tuple"
        },
        {
          "internalType": "address",
          "name": "participant",
          "type": "address"
        },
        {
          "internalType": "uint256",
          "name": "amount",
          "type": "uint256"
        }
      ],
      "name": "addMargin",
      "outputs": [],
      "stateMutability": "nonpayable",
      "type": "function"
    },
    {
      "inputs": [
        {
          "internalType": "uint8",
          "name": "amount",
          "type": "uint8"
        }
      ],
      "name": "advanceNonce",
      "outputs": [],
      "stateMutability": "nonpayable",
      "type": "function"
    },
    {
      "inputs": [
        {
          "internalType": "address[]",
          "name": "targets",
          "type": "address[]"
        },
        {
          "internalType": "bytes[]",
          "name": "data",
          "type": "bytes[]"
        }
      ],
      "name": "and",
      "outputs": [
        {
          "internalType": "bool",
          "name": "",
          "type": "bool"
        }
      ],
      "stateMutability": "view",
      "type": "function"
    },
    {
      "inputs": [
        {
          "internalType": "address",
          "name": "target",
          "type": "address"
        },
        {
          "internalType": "bytes",
          "name": "data",
          "type": "bytes"
        }
      ],
      "name": "arbitraryStaticCall",
      "outputs": [
        {
          "internalType": "uint256",
          "name": "",
          "type": "uint256"
        }
      ],
      "stateMutability": "view",
      "type": "function"
    },
    {
      "inputs": [
        {
          "internalType": "address",
          "name": "",
          "type": "address"
        }
      ],
      "name": "assetAlpha",
      "outputs": [
        {
          "internalType": "int128",
          "name": "",
          "type": "int128"
        }
      ],
      "stateMutability": "view",
      "type": "function"
    },
    {
      "inputs": [
        {
          "internalType": "address",
          "name": "",
          "type": "address"
        }
      ],
      "name": "assetBeta",
      "outputs": [
        {
          "internalType": "int128",
          "name": "",
          "type": "int128"
        }
      ],
      "stateMutability": "view",
      "type": "function"
    },
    {
      "inputs": [
        {
          "internalType": "address",
          "name": "",
          "type": "address"
        }
      ],
      "name": "assetLowerBoundMul",
      "outputs": [
        {
          "internalType": "int128",
          "name": "",
          "type": "int128"
        }
      ],
      "stateMutability": "view",
      "type": "function"
    },
    {
      "inputs": [
        {
          "internalType": "address",
          "name": "",
          "type": "address"
        }
      ],
      "name": "assetSigma",
      "outputs": [
        {
          "internalType": "int128",
          "name": "",
          "type": "int128"
        }
      ],
      "stateMutability": "view",
      "type": "function"
    },
    {
      "inputs": [
        {
          "internalType": "address",
          "name": "",
          "type": "address"
        }
      ],
      "name": "assetUpperBoundMul",
      "outputs": [
        {
          "internalType": "int128",
          "name": "",
          "type": "int128"
        }
      ],
      "stateMutability": "view",
      "type": "function"
    },
    {
      "inputs": [
        {
          "components": [
            {
              "internalType": "uint256",
              "name": "salt",
              "type": "uint256"
            },
            {
              "internalType": "address",
              "name": "asset",
              "type": "address"
            },
            {
              "internalType": "address",
              "name": "underlyingAsset",
              "type": "address"
            },
            {
              "internalType": "address",
              "name": "maker",
              "type": "address"
            },
            {
              "internalType": "address",
              "name": "receiver",
              "type": "address"
            },
            {
              "internalType": "address",
              "name": "allowedSender",
              "type": "address"
            },
            {
              "internalType": "uint256",
              "name": "fixedTokens",
              "type": "uint256"
            },
            {
              "internalType": "uint256",
              "name": "variableTokens",
              "type": "uint256"
            },
            {
              "internalType": "bool",
              "name": "isFixedTaker",
              "type": "bool"
            },
            {
              "internalType": "uint256",
              "name": "beginTimestamp",
              "type": "uint256"
            },
            {
              "internalType": "uint256",
              "name": "endTimestamp",
              "type": "uint256"
            },
            {
              "internalType": "int128",
              "name": "t",
              "type": "int128"
            },
            {
              "internalType": "bytes",
              "name": "makerAssetData",
              "type": "bytes"
            },
            {
              "internalType": "bytes",
              "name": "takerAssetData",
              "type": "bytes"
            },
            {
              "internalType": "bytes",
              "name": "getMakerAmount",
              "type": "bytes"
            },
            {
              "internalType": "bytes",
              "name": "getTakerAmount",
              "type": "bytes"
            },
            {
              "internalType": "bytes",
              "name": "predicate",
              "type": "bytes"
            },
            {
              "internalType": "bytes",
              "name": "permit",
              "type": "bytes"
            },
            {
              "internalType": "bytes",
              "name": "interaction",
              "type": "bytes"
            }
          ],
          "internalType": "struct OrderMixin.Order",
          "name": "order",
          "type": "tuple"
        }
      ],
      "name": "cancelOrder",
      "outputs": [],
      "stateMutability": "nonpayable",
      "type": "function"
    },
    {
      "inputs": [
        {
          "components": [
            {
              "internalType": "uint256",
              "name": "salt",
              "type": "uint256"
            },
            {
              "internalType": "address",
              "name": "asset",
              "type": "address"
            },
            {
              "internalType": "address",
              "name": "underlyingAsset",
              "type": "address"
            },
            {
              "internalType": "address",
              "name": "maker",
              "type": "address"
            },
            {
              "internalType": "address",
              "name": "receiver",
              "type": "address"
            },
            {
              "internalType": "address",
              "name": "allowedSender",
              "type": "address"
            },
            {
              "internalType": "uint256",
              "name": "fixedTokens",
              "type": "uint256"
            },
            {
              "internalType": "uint256",
              "name": "variableTokens",
              "type": "uint256"
            },
            {
              "internalType": "bool",
              "name": "isFixedTaker",
              "type": "bool"
            },
            {
              "internalType": "uint256",
              "name": "beginTimestamp",
              "type": "uint256"
            },
            {
              "internalType": "uint256",
              "name": "endTimestamp",
              "type": "uint256"
            },
            {
              "internalType": "int128",
              "name": "t",
              "type": "int128"
            },
            {
              "internalType": "bytes",
              "name": "makerAssetData",
              "type": "bytes"
            },
            {
              "internalType": "bytes",
              "name": "takerAssetData",
              "type": "bytes"
            },
            {
              "internalType": "bytes",
              "name": "getMakerAmount",
              "type": "bytes"
            },
            {
              "internalType": "bytes",
              "name": "getTakerAmount",
              "type": "bytes"
            },
            {
              "internalType": "bytes",
              "name": "predicate",
              "type": "bytes"
            },
            {
              "internalType": "bytes",
              "name": "permit",
              "type": "bytes"
            },
            {
              "internalType": "bytes",
              "name": "interaction",
              "type": "bytes"
            }
          ],
          "internalType": "struct OrderMixin.Order",
          "name": "order",
          "type": "tuple"
        }
      ],
      "name": "checkPredicate",
      "outputs": [
        {
          "internalType": "bool",
          "name": "",
          "type": "bool"
        }
      ],
      "stateMutability": "view",
      "type": "function"
    },
    {
      "inputs": [
        {
          "internalType": "bytes32",
          "name": "",
          "type": "bytes32"
        }
      ],
      "name": "defaultedFunds",
      "outputs": [
        {
          "internalType": "uint256",
          "name": "",
          "type": "uint256"
        }
      ],
      "stateMutability": "view",
      "type": "function"
    },
    {
      "inputs": [
        {
          "internalType": "contract AggregatorV3Interface",
          "name": "oracle1",
          "type": "address"
        },
        {
          "internalType": "contract AggregatorV3Interface",
          "name": "oracle2",
          "type": "address"
        },
        {
          "internalType": "uint256",
          "name": "spread",
          "type": "uint256"
        },
        {
          "internalType": "int256",
          "name": "decimalsScale",
          "type": "int256"
        },
        {
          "internalType": "uint256",
          "name": "amount",
          "type": "uint256"
        }
      ],
      "name": "doublePrice",
      "outputs": [
        {
          "internalType": "uint256",
          "name": "",
          "type": "uint256"
        }
      ],
      "stateMutability": "view",
      "type": "function"
    },
    {
      "inputs": [
        {
          "internalType": "uint256",
          "name": "value",
          "type": "uint256"
        },
        {
          "internalType": "address",
          "name": "target",
          "type": "address"
        },
        {
          "internalType": "bytes",
          "name": "data",
          "type": "bytes"
        }
      ],
      "name": "eq",
      "outputs": [
        {
          "internalType": "bool",
          "name": "",
          "type": "bool"
        }
      ],
      "stateMutability": "view",
      "type": "function"
    },
    {
      "inputs": [
        {
          "components": [
            {
              "internalType": "uint256",
              "name": "salt",
              "type": "uint256"
            },
            {
              "internalType": "address",
              "name": "asset",
              "type": "address"
            },
            {
              "internalType": "address",
              "name": "underlyingAsset",
              "type": "address"
            },
            {
              "internalType": "address",
              "name": "maker",
              "type": "address"
            },
            {
              "internalType": "address",
              "name": "receiver",
              "type": "address"
            },
            {
              "internalType": "address",
              "name": "allowedSender",
              "type": "address"
            },
            {
              "internalType": "uint256",
              "name": "fixedTokens",
              "type": "uint256"
            },
            {
              "internalType": "uint256",
              "name": "variableTokens",
              "type": "uint256"
            },
            {
              "internalType": "bool",
              "name": "isFixedTaker",
              "type": "bool"
            },
            {
              "internalType": "uint256",
              "name": "beginTimestamp",
              "type": "uint256"
            },
            {
              "internalType": "uint256",
              "name": "endTimestamp",
              "type": "uint256"
            },
            {
              "internalType": "int128",
              "name": "t",
              "type": "int128"
            },
            {
              "internalType": "bytes",
              "name": "makerAssetData",
              "type": "bytes"
            },
            {
              "internalType": "bytes",
              "name": "takerAssetData",
              "type": "bytes"
            },
            {
              "internalType": "bytes",
              "name": "getMakerAmount",
              "type": "bytes"
            },
            {
              "internalType": "bytes",
              "name": "getTakerAmount",
              "type": "bytes"
            },
            {
              "internalType": "bytes",
              "name": "predicate",
              "type": "bytes"
            },
            {
              "internalType": "bytes",
              "name": "permit",
              "type": "bytes"
            },
            {
              "internalType": "bytes",
              "name": "interaction",
              "type": "bytes"
            }
          ],
          "internalType": "struct OrderMixin.Order",
          "name": "order",
          "type": "tuple"
        },
        {
          "internalType": "bytes",
          "name": "signature",
          "type": "bytes"
        },
        {
          "internalType": "uint256",
          "name": "fixedTokens",
          "type": "uint256"
        },
        {
          "internalType": "uint256",
          "name": "variableTokens",
          "type": "uint256"
        },
        {
          "internalType": "uint256",
          "name": "thresholdTokens",
          "type": "uint256"
        }
      ],
      "name": "fillOrder",
      "outputs": [
        {
          "internalType": "uint256",
          "name": "",
          "type": "uint256"
        },
        {
          "internalType": "uint256",
          "name": "",
          "type": "uint256"
        }
      ],
      "stateMutability": "nonpayable",
      "type": "function"
    },
    {
      "inputs": [
        {
          "components": [
            {
              "internalType": "uint256",
              "name": "salt",
              "type": "uint256"
            },
            {
              "internalType": "address",
              "name": "asset",
              "type": "address"
            },
            {
              "internalType": "address",
              "name": "underlyingAsset",
              "type": "address"
            },
            {
              "internalType": "address",
              "name": "maker",
              "type": "address"
            },
            {
              "internalType": "address",
              "name": "receiver",
              "type": "address"
            },
            {
              "internalType": "address",
              "name": "allowedSender",
              "type": "address"
            },
            {
              "internalType": "uint256",
              "name": "fixedTokens",
              "type": "uint256"
            },
            {
              "internalType": "uint256",
              "name": "variableTokens",
              "type": "uint256"
            },
            {
              "internalType": "bool",
              "name": "isFixedTaker",
              "type": "bool"
            },
            {
              "internalType": "uint256",
              "name": "beginTimestamp",
              "type": "uint256"
            },
            {
              "internalType": "uint256",
              "name": "endTimestamp",
              "type": "uint256"
            },
            {
              "internalType": "int128",
              "name": "t",
              "type": "int128"
            },
            {
              "internalType": "bytes",
              "name": "makerAssetData",
              "type": "bytes"
            },
            {
              "internalType": "bytes",
              "name": "takerAssetData",
              "type": "bytes"
            },
            {
              "internalType": "bytes",
              "name": "getMakerAmount",
              "type": "bytes"
            },
            {
              "internalType": "bytes",
              "name": "getTakerAmount",
              "type": "bytes"
            },
            {
              "internalType": "bytes",
              "name": "predicate",
              "type": "bytes"
            },
            {
              "internalType": "bytes",
              "name": "permit",
              "type": "bytes"
            },
            {
              "internalType": "bytes",
              "name": "interaction",
              "type": "bytes"
            }
          ],
          "internalType": "struct OrderMixin.Order",
          "name": "order",
          "type": "tuple"
        },
        {
          "internalType": "bytes",
          "name": "signature",
          "type": "bytes"
        },
        {
          "internalType": "uint256",
          "name": "fixedTokens",
          "type": "uint256"
        },
        {
          "internalType": "uint256",
          "name": "variableTokens",
          "type": "uint256"
        },
        {
          "internalType": "uint256",
          "name": "thresholdTokens",
          "type": "uint256"
        }
      ],
      "name": "fillOrderTo",
      "outputs": [
        {
          "internalType": "uint256",
          "name": "",
          "type": "uint256"
        },
        {
          "internalType": "uint256",
          "name": "",
          "type": "uint256"
        }
      ],
      "stateMutability": "nonpayable",
      "type": "function"
    },
    {
      "inputs": [
        {
          "components": [
            {
              "internalType": "uint256",
              "name": "salt",
              "type": "uint256"
            },
            {
              "internalType": "address",
              "name": "asset",
              "type": "address"
            },
            {
              "internalType": "address",
              "name": "underlyingAsset",
              "type": "address"
            },
            {
              "internalType": "address",
              "name": "maker",
              "type": "address"
            },
            {
              "internalType": "address",
              "name": "receiver",
              "type": "address"
            },
            {
              "internalType": "address",
              "name": "allowedSender",
              "type": "address"
            },
            {
              "internalType": "uint256",
              "name": "fixedTokens",
              "type": "uint256"
            },
            {
              "internalType": "uint256",
              "name": "variableTokens",
              "type": "uint256"
            },
            {
              "internalType": "bool",
              "name": "isFixedTaker",
              "type": "bool"
            },
            {
              "internalType": "uint256",
              "name": "beginTimestamp",
              "type": "uint256"
            },
            {
              "internalType": "uint256",
              "name": "endTimestamp",
              "type": "uint256"
            },
            {
              "internalType": "int128",
              "name": "t",
              "type": "int128"
            },
            {
              "internalType": "bytes",
              "name": "makerAssetData",
              "type": "bytes"
            },
            {
              "internalType": "bytes",
              "name": "takerAssetData",
              "type": "bytes"
            },
            {
              "internalType": "bytes",
              "name": "getMakerAmount",
              "type": "bytes"
            },
            {
              "internalType": "bytes",
              "name": "getTakerAmount",
              "type": "bytes"
            },
            {
              "internalType": "bytes",
              "name": "predicate",
              "type": "bytes"
            },
            {
              "internalType": "bytes",
              "name": "permit",
              "type": "bytes"
            },
            {
              "internalType": "bytes",
              "name": "interaction",
              "type": "bytes"
            }
          ],
          "internalType": "struct OrderMixin.Order",
          "name": "order",
          "type": "tuple"
        },
        {
          "internalType": "bytes",
          "name": "signature",
          "type": "bytes"
        },
        {
          "internalType": "uint256",
          "name": "fixedTokens",
          "type": "uint256"
        },
        {
          "internalType": "uint256",
          "name": "variableTokens",
          "type": "uint256"
        },
        {
          "internalType": "uint256",
          "name": "thresholdTokens",
          "type": "uint256"
        },
        {
          "internalType": "bytes",
          "name": "permit",
          "type": "bytes"
        }
      ],
      "name": "fillOrderToWithPermit",
      "outputs": [
        {
          "internalType": "uint256",
          "name": "",
          "type": "uint256"
        },
        {
          "internalType": "uint256",
          "name": "",
          "type": "uint256"
        }
      ],
      "stateMutability": "nonpayable",
      "type": "function"
    },
    {
      "inputs": [
        {
          "internalType": "address",
          "name": "asset",
          "type": "address"
        },
        {
          "internalType": "address",
          "name": "underlyingAsset",
          "type": "address"
        },
        {
          "internalType": "uint256",
          "name": "startTimestamp",
          "type": "uint256"
        },
        {
          "internalType": "uint256",
          "name": "endTimestamp",
          "type": "uint256"
        }
      ],
      "name": "getAverageAccruedAPYBetweenTimestamps",
      "outputs": [
        {
          "internalType": "int128",
          "name": "apy",
          "type": "int128"
        },
        {
          "internalType": "int128",
          "name": "ewma",
          "type": "int128"
        }
      ],
      "stateMutability": "view",
      "type": "function"
    },
    {
      "inputs": [
        {
          "components": [
            {
              "internalType": "uint256",
              "name": "salt",
              "type": "uint256"
            },
            {
              "internalType": "address",
              "name": "asset",
              "type": "address"
            },
            {
              "internalType": "address",
              "name": "underlyingAsset",
              "type": "address"
            },
            {
              "internalType": "address",
              "name": "maker",
              "type": "address"
            },
            {
              "internalType": "address",
              "name": "receiver",
              "type": "address"
            },
            {
              "internalType": "address",
              "name": "allowedSender",
              "type": "address"
            },
            {
              "internalType": "uint256",
              "name": "fixedTokens",
              "type": "uint256"
            },
            {
              "internalType": "uint256",
              "name": "variableTokens",
              "type": "uint256"
            },
            {
              "internalType": "bool",
              "name": "isFixedTaker",
              "type": "bool"
            },
            {
              "internalType": "uint256",
              "name": "beginTimestamp",
              "type": "uint256"
            },
            {
              "internalType": "uint256",
              "name": "endTimestamp",
              "type": "uint256"
            },
            {
              "internalType": "int128",
              "name": "t",
              "type": "int128"
            },
            {
              "internalType": "bytes",
              "name": "makerAssetData",
              "type": "bytes"
            },
            {
              "internalType": "bytes",
              "name": "takerAssetData",
              "type": "bytes"
            },
            {
              "internalType": "bytes",
              "name": "getMakerAmount",
              "type": "bytes"
            },
            {
              "internalType": "bytes",
              "name": "getTakerAmount",
              "type": "bytes"
            },
            {
              "internalType": "bytes",
              "name": "predicate",
              "type": "bytes"
            },
            {
              "internalType": "bytes",
              "name": "permit",
              "type": "bytes"
            },
            {
              "internalType": "bytes",
              "name": "interaction",
              "type": "bytes"
            }
          ],
          "internalType": "struct OrderMixin.Order",
          "name": "order",
          "type": "tuple"
        },
        {
          "internalType": "bytes32",
          "name": "orderHash",
          "type": "bytes32"
        },
        {
          "internalType": "address",
          "name": "participant",
          "type": "address"
        }
      ],
      "name": "getInitialMarginReq",
      "outputs": [
        {
          "internalType": "uint256",
          "name": "",
          "type": "uint256"
        }
      ],
      "stateMutability": "view",
      "type": "function"
    },
    {
      "inputs": [
        {
          "internalType": "uint256",
          "name": "orderMakerAmount",
          "type": "uint256"
        },
        {
          "internalType": "uint256",
          "name": "orderTakerAmount",
          "type": "uint256"
        },
        {
          "internalType": "uint256",
          "name": "swapTakerAmount",
          "type": "uint256"
        }
      ],
      "name": "getMakerAmount",
      "outputs": [
        {
          "internalType": "uint256",
          "name": "",
          "type": "uint256"
        }
      ],
      "stateMutability": "pure",
      "type": "function"
    },
    {
      "inputs": [
        {
          "components": [
            {
              "internalType": "uint256",
              "name": "salt",
              "type": "uint256"
            },
            {
              "internalType": "address",
              "name": "asset",
              "type": "address"
            },
            {
              "internalType": "address",
              "name": "underlyingAsset",
              "type": "address"
            },
            {
              "internalType": "address",
              "name": "maker",
              "type": "address"
            },
            {
              "internalType": "address",
              "name": "receiver",
              "type": "address"
            },
            {
              "internalType": "address",
              "name": "allowedSender",
              "type": "address"
            },
            {
              "internalType": "uint256",
              "name": "fixedTokens",
              "type": "uint256"
            },
            {
              "internalType": "uint256",
              "name": "variableTokens",
              "type": "uint256"
            },
            {
              "internalType": "bool",
              "name": "isFixedTaker",
              "type": "bool"
            },
            {
              "internalType": "uint256",
              "name": "beginTimestamp",
              "type": "uint256"
            },
            {
              "internalType": "uint256",
              "name": "endTimestamp",
              "type": "uint256"
            },
            {
              "internalType": "int128",
              "name": "t",
              "type": "int128"
            },
            {
              "internalType": "bytes",
              "name": "makerAssetData",
              "type": "bytes"
            },
            {
              "internalType": "bytes",
              "name": "takerAssetData",
              "type": "bytes"
            },
            {
              "internalType": "bytes",
              "name": "getMakerAmount",
              "type": "bytes"
            },
            {
              "internalType": "bytes",
              "name": "getTakerAmount",
              "type": "bytes"
            },
            {
              "internalType": "bytes",
              "name": "predicate",
              "type": "bytes"
            },
            {
              "internalType": "bytes",
              "name": "permit",
              "type": "bytes"
            },
            {
              "internalType": "bytes",
              "name": "interaction",
              "type": "bytes"
            }
          ],
          "internalType": "struct OrderMixin.Order",
          "name": "order",
          "type": "tuple"
        },
        {
          "internalType": "bytes32",
          "name": "orderHash",
          "type": "bytes32"
        },
        {
          "internalType": "address",
          "name": "participant",
          "type": "address"
        }
      ],
      "name": "getMarginReq",
      "outputs": [
        {
          "internalType": "uint256",
          "name": "",
          "type": "uint256"
        }
      ],
      "stateMutability": "view",
      "type": "function"
    },
    {
      "inputs": [
        {
          "internalType": "uint256",
          "name": "orderMakerAmount",
          "type": "uint256"
        },
        {
          "internalType": "uint256",
          "name": "orderTakerAmount",
          "type": "uint256"
        },
        {
          "internalType": "uint256",
          "name": "swapMakerAmount",
          "type": "uint256"
        }
      ],
      "name": "getTakerAmount",
      "outputs": [
        {
          "internalType": "uint256",
          "name": "",
          "type": "uint256"
        }
      ],
      "stateMutability": "pure",
      "type": "function"
    },
    {
      "inputs": [
        {
          "internalType": "uint256",
          "name": "value",
          "type": "uint256"
        },
        {
          "internalType": "address",
          "name": "target",
          "type": "address"
        },
        {
          "internalType": "bytes",
          "name": "data",
          "type": "bytes"
        }
      ],
      "name": "gt",
      "outputs": [
        {
          "internalType": "bool",
          "name": "",
          "type": "bool"
        }
      ],
      "stateMutability": "view",
      "type": "function"
    },
    {
      "inputs": [
        {
          "components": [
            {
              "internalType": "uint256",
              "name": "salt",
              "type": "uint256"
            },
            {
              "internalType": "address",
              "name": "asset",
              "type": "address"
            },
            {
              "internalType": "address",
              "name": "underlyingAsset",
              "type": "address"
            },
            {
              "internalType": "address",
              "name": "maker",
              "type": "address"
            },
            {
              "internalType": "address",
              "name": "receiver",
              "type": "address"
            },
            {
              "internalType": "address",
              "name": "allowedSender",
              "type": "address"
            },
            {
              "internalType": "uint256",
              "name": "fixedTokens",
              "type": "uint256"
            },
            {
              "internalType": "uint256",
              "name": "variableTokens",
              "type": "uint256"
            },
            {
              "internalType": "bool",
              "name": "isFixedTaker",
              "type": "bool"
            },
            {
              "internalType": "uint256",
              "name": "beginTimestamp",
              "type": "uint256"
            },
            {
              "internalType": "uint256",
              "name": "endTimestamp",
              "type": "uint256"
            },
            {
              "internalType": "int128",
              "name": "t",
              "type": "int128"
            },
            {
              "internalType": "bytes",
              "name": "makerAssetData",
              "type": "bytes"
            },
            {
              "internalType": "bytes",
              "name": "takerAssetData",
              "type": "bytes"
            },
            {
              "internalType": "bytes",
              "name": "getMakerAmount",
              "type": "bytes"
            },
            {
              "internalType": "bytes",
              "name": "getTakerAmount",
              "type": "bytes"
            },
            {
              "internalType": "bytes",
              "name": "predicate",
              "type": "bytes"
            },
            {
              "internalType": "bytes",
              "name": "permit",
              "type": "bytes"
            },
            {
              "internalType": "bytes",
              "name": "interaction",
              "type": "bytes"
            }
          ],
          "internalType": "struct OrderMixin.Order",
          "name": "order",
          "type": "tuple"
        }
      ],
      "name": "hashOrder",
      "outputs": [
        {
          "internalType": "bytes32",
          "name": "",
          "type": "bytes32"
        }
      ],
      "stateMutability": "view",
      "type": "function"
    },
    {
      "inputs": [],
      "name": "increaseNonce",
      "outputs": [],
      "stateMutability": "nonpayable",
      "type": "function"
    },
    {
      "inputs": [
        {
          "internalType": "bytes32",
          "name": "",
          "type": "bytes32"
        }
      ],
      "name": "isOrderDefaulted",
      "outputs": [
        {
          "internalType": "bool",
          "name": "",
          "type": "bool"
        }
      ],
      "stateMutability": "view",
      "type": "function"
    },
    {
      "inputs": [
        {
          "components": [
            {
              "internalType": "uint256",
              "name": "salt",
              "type": "uint256"
            },
            {
              "internalType": "address",
              "name": "asset",
              "type": "address"
            },
            {
              "internalType": "address",
              "name": "underlyingAsset",
              "type": "address"
            },
            {
              "internalType": "address",
              "name": "maker",
              "type": "address"
            },
            {
              "internalType": "address",
              "name": "receiver",
              "type": "address"
            },
            {
              "internalType": "address",
              "name": "allowedSender",
              "type": "address"
            },
            {
              "internalType": "uint256",
              "name": "fixedTokens",
              "type": "uint256"
            },
            {
              "internalType": "uint256",
              "name": "variableTokens",
              "type": "uint256"
            },
            {
              "internalType": "bool",
              "name": "isFixedTaker",
              "type": "bool"
            },
            {
              "internalType": "uint256",
              "name": "beginTimestamp",
              "type": "uint256"
            },
            {
              "internalType": "uint256",
              "name": "endTimestamp",
              "type": "uint256"
            },
            {
              "internalType": "int128",
              "name": "t",
              "type": "int128"
            },
            {
              "internalType": "bytes",
              "name": "makerAssetData",
              "type": "bytes"
            },
            {
              "internalType": "bytes",
              "name": "takerAssetData",
              "type": "bytes"
            },
            {
              "internalType": "bytes",
              "name": "getMakerAmount",
              "type": "bytes"
            },
            {
              "internalType": "bytes",
              "name": "getTakerAmount",
              "type": "bytes"
            },
            {
              "internalType": "bytes",
              "name": "predicate",
              "type": "bytes"
            },
            {
              "internalType": "bytes",
              "name": "permit",
              "type": "bytes"
            },
            {
              "internalType": "bytes",
              "name": "interaction",
              "type": "bytes"
            }
          ],
          "internalType": "struct OrderMixin.Order",
          "name": "order",
          "type": "tuple"
        },
        {
          "internalType": "address",
          "name": "defaulter",
          "type": "address"
        }
      ],
      "name": "liquidate",
      "outputs": [],
      "stateMutability": "nonpayable",
      "type": "function"
    },
    {
      "inputs": [],
      "name": "liquidatorMargin",
      "outputs": [
        {
          "internalType": "int128",
          "name": "",
          "type": "int128"
        }
      ],
      "stateMutability": "view",
      "type": "function"
    },
    {
      "inputs": [
        {
          "internalType": "uint256",
          "name": "value",
          "type": "uint256"
        },
        {
          "internalType": "address",
          "name": "target",
          "type": "address"
        },
        {
          "internalType": "bytes",
          "name": "data",
          "type": "bytes"
        }
      ],
      "name": "lt",
      "outputs": [
        {
          "internalType": "bool",
          "name": "",
          "type": "bool"
        }
      ],
      "stateMutability": "view",
      "type": "function"
    },
    {
      "inputs": [
        {
          "internalType": "address",
          "name": "",
          "type": "address"
        }
      ],
      "name": "nonce",
      "outputs": [
        {
          "internalType": "uint256",
          "name": "",
          "type": "uint256"
        }
      ],
      "stateMutability": "view",
      "type": "function"
    },
    {
      "inputs": [
        {
          "internalType": "address",
          "name": "makerAddress",
          "type": "address"
        },
        {
          "internalType": "uint256",
          "name": "makerNonce",
          "type": "uint256"
        }
      ],
      "name": "nonceEquals",
      "outputs": [
        {
          "internalType": "bool",
          "name": "",
          "type": "bool"
        }
      ],
      "stateMutability": "view",
      "type": "function"
    },
    {
      "inputs": [],
      "name": "oppositePartyMargin",
      "outputs": [
        {
          "internalType": "int128",
          "name": "",
          "type": "int128"
        }
      ],
      "stateMutability": "view",
      "type": "function"
    },
    {
      "inputs": [],
      "name": "oppositePartyMarginNoLiquidator",
      "outputs": [
        {
          "internalType": "int128",
          "name": "",
          "type": "int128"
        }
      ],
      "stateMutability": "view",
      "type": "function"
    },
    {
      "inputs": [
        {
          "internalType": "address[]",
          "name": "targets",
          "type": "address[]"
        },
        {
          "internalType": "bytes[]",
          "name": "data",
          "type": "bytes[]"
        }
      ],
      "name": "or",
      "outputs": [
        {
          "internalType": "bool",
          "name": "",
          "type": "bool"
        }
      ],
      "stateMutability": "view",
      "type": "function"
    },
    {
      "inputs": [
        {
          "internalType": "bytes32",
          "name": "",
          "type": "bytes32"
        },
        {
          "internalType": "address",
          "name": "",
          "type": "address"
        }
      ],
      "name": "orderParticipantFixedTokens",
      "outputs": [
        {
          "internalType": "uint256",
          "name": "",
          "type": "uint256"
        }
      ],
      "stateMutability": "view",
      "type": "function"
    },
    {
      "inputs": [
        {
          "internalType": "bytes32",
          "name": "",
          "type": "bytes32"
        },
        {
          "internalType": "address",
          "name": "",
          "type": "address"
        }
      ],
      "name": "orderParticipantMargin",
      "outputs": [
        {
          "internalType": "uint256",
          "name": "",
          "type": "uint256"
        }
      ],
      "stateMutability": "view",
      "type": "function"
    },
    {
      "inputs": [
        {
          "internalType": "bytes32",
          "name": "",
          "type": "bytes32"
        },
        {
          "internalType": "address",
          "name": "",
          "type": "address"
        }
      ],
      "name": "orderParticipantVariableTokens",
      "outputs": [
        {
          "internalType": "uint256",
          "name": "",
          "type": "uint256"
        }
      ],
      "stateMutability": "view",
      "type": "function"
    },
    {
      "inputs": [],
      "name": "owner",
      "outputs": [
        {
          "internalType": "address",
          "name": "",
          "type": "address"
        }
      ],
      "stateMutability": "view",
      "type": "function"
    },
    {
      "inputs": [
        {
          "internalType": "bytes32",
          "name": "orderHash",
          "type": "bytes32"
        }
      ],
      "name": "remaining",
      "outputs": [
        {
          "internalType": "uint256",
          "name": "",
          "type": "uint256"
        }
      ],
      "stateMutability": "view",
      "type": "function"
    },
    {
      "inputs": [
        {
          "internalType": "bytes32",
          "name": "orderHash",
          "type": "bytes32"
        }
      ],
      "name": "remainingRaw",
      "outputs": [
        {
          "internalType": "uint256",
          "name": "",
          "type": "uint256"
        }
      ],
      "stateMutability": "view",
      "type": "function"
    },
    {
      "inputs": [
        {
          "internalType": "address",
          "name": "asset",
          "type": "address"
        },
        {
          "internalType": "int128",
          "name": "alpha",
          "type": "int128"
        }
      ],
      "name": "setAssetAlpha",
      "outputs": [],
      "stateMutability": "nonpayable",
      "type": "function"
    },
    {
      "inputs": [
        {
          "internalType": "address",
          "name": "asset",
          "type": "address"
        },
        {
          "internalType": "int128",
          "name": "beta",
          "type": "int128"
        }
      ],
      "name": "setAssetBeta",
      "outputs": [],
      "stateMutability": "nonpayable",
      "type": "function"
    },
    {
      "inputs": [
        {
          "internalType": "address",
          "name": "asset",
          "type": "address"
        },
        {
          "internalType": "int128",
          "name": "lowerBoundMul",
          "type": "int128"
        }
      ],
      "name": "setAssetLowerBoundMul",
      "outputs": [],
      "stateMutability": "nonpayable",
      "type": "function"
    },
    {
      "inputs": [
        {
          "internalType": "address",
          "name": "asset",
          "type": "address"
        },
        {
          "internalType": "int128",
          "name": "sigma",
          "type": "int128"
        }
      ],
      "name": "setAssetSigma",
      "outputs": [],
      "stateMutability": "nonpayable",
      "type": "function"
    },
    {
      "inputs": [
        {
          "internalType": "address",
          "name": "asset",
          "type": "address"
        },
        {
          "internalType": "int128",
          "name": "upperBoundMul",
          "type": "int128"
        }
      ],
      "name": "setAssetUpperBoundMul",
      "outputs": [],
      "stateMutability": "nonpayable",
      "type": "function"
    },
    {
      "inputs": [
        {
          "internalType": "int128",
          "name": "_liquidatorMargin",
          "type": "int128"
        }
      ],
      "name": "setLiquidatorMargin",
      "outputs": [],
      "stateMutability": "nonpayable",
      "type": "function"
    },
    {
      "inputs": [
        {
          "internalType": "int128",
          "name": "_oppositePartyMargin",
          "type": "int128"
        }
      ],
      "name": "setOppositePartyMargin",
      "outputs": [],
      "stateMutability": "nonpayable",
      "type": "function"
    },
    {
      "inputs": [
        {
          "internalType": "int128",
          "name": "_oppositePartyMarginNoLiquidator",
          "type": "int128"
        }
      ],
      "name": "setOppositePartyMarginNoLiquidator",
      "outputs": [],
      "stateMutability": "nonpayable",
      "type": "function"
    },
    {
      "inputs": [
        {
          "components": [
            {
              "internalType": "uint256",
              "name": "salt",
              "type": "uint256"
            },
            {
              "internalType": "address",
              "name": "asset",
              "type": "address"
            },
            {
              "internalType": "address",
              "name": "underlyingAsset",
              "type": "address"
            },
            {
              "internalType": "address",
              "name": "maker",
              "type": "address"
            },
            {
              "internalType": "address",
              "name": "receiver",
              "type": "address"
            },
            {
              "internalType": "address",
              "name": "allowedSender",
              "type": "address"
            },
            {
              "internalType": "uint256",
              "name": "fixedTokens",
              "type": "uint256"
            },
            {
              "internalType": "uint256",
              "name": "variableTokens",
              "type": "uint256"
            },
            {
              "internalType": "bool",
              "name": "isFixedTaker",
              "type": "bool"
            },
            {
              "internalType": "uint256",
              "name": "beginTimestamp",
              "type": "uint256"
            },
            {
              "internalType": "uint256",
              "name": "endTimestamp",
              "type": "uint256"
            },
            {
              "internalType": "int128",
              "name": "t",
              "type": "int128"
            },
            {
              "internalType": "bytes",
              "name": "makerAssetData",
              "type": "bytes"
            },
            {
              "internalType": "bytes",
              "name": "takerAssetData",
              "type": "bytes"
            },
            {
              "internalType": "bytes",
              "name": "getMakerAmount",
              "type": "bytes"
            },
            {
              "internalType": "bytes",
              "name": "getTakerAmount",
              "type": "bytes"
            },
            {
              "internalType": "bytes",
              "name": "predicate",
              "type": "bytes"
            },
            {
              "internalType": "bytes",
              "name": "permit",
              "type": "bytes"
            },
            {
              "internalType": "bytes",
              "name": "interaction",
              "type": "bytes"
            }
          ],
          "internalType": "struct OrderMixin.Order",
          "name": "order",
          "type": "tuple"
        },
        {
          "internalType": "address",
          "name": "settler",
          "type": "address"
        }
      ],
      "name": "settleOrder",
      "outputs": [
        {
          "internalType": "uint256",
          "name": "",
          "type": "uint256"
        }
      ],
      "stateMutability": "nonpayable",
      "type": "function"
    },
    {
      "inputs": [
        {
          "internalType": "address[]",
          "name": "targets",
          "type": "address[]"
        },
        {
          "internalType": "bytes[]",
          "name": "data",
          "type": "bytes[]"
        }
      ],
      "name": "simulateCalls",
      "outputs": [],
      "stateMutability": "nonpayable",
      "type": "function"
    },
    {
      "inputs": [
        {
          "internalType": "contract AggregatorV3Interface",
          "name": "oracle",
          "type": "address"
        },
        {
          "internalType": "uint256",
          "name": "inverseAndSpread",
          "type": "uint256"
        },
        {
          "internalType": "uint256",
          "name": "amount",
          "type": "uint256"
        }
      ],
      "name": "singlePrice",
      "outputs": [
        {
          "internalType": "uint256",
          "name": "",
          "type": "uint256"
        }
      ],
      "stateMutability": "view",
      "type": "function"
    },
    {
      "inputs": [
        {
          "internalType": "uint256",
          "name": "time",
          "type": "uint256"
        }
      ],
      "name": "timestampBelow",
      "outputs": [
        {
          "internalType": "bool",
          "name": "",
          "type": "bool"
        }
      ],
      "stateMutability": "view",
      "type": "function"
    }
  ],
  "transactionHash": "0xb7f898d0ed2a8ef7752b06d784b39dfbbb99ba08fbdf25cd1d2131b4b7ca75be",
  "args": [
    "0x40a0bCf1CD1A31157D77BF5F2340218F5d7fAf72"
  ],
  "numDeployments": 1,
  "solcInputHash": "80635ab936506e7e25a865a672cbbb56",
  "bytecode": "0x6101406040526002805460ff60a01b1916600160a01b17905577666666666666666600000000000000003333333333333333600355600480546001600160801b0319166780000000000000001790553480156200005b57600080fd5b5060405162006090380380620060908339810160408190526200007e91620001a7565b604080518082018252601881527f495253204c696d6974204f726465722050726f746f636f6c000000000000000060208083019182528351808501855260018152603160f81b81830152835190922060e08190527fc89efdaa54c0f20c7adf612882df0950f5a951637e0307cdcb4c672f298b8bc66101008190524660a081815287517f8b73c3c69bb8fe3d512ecc4cf759cc79239f7b179b0ffacaa9a75d522b39400f818701819052818a0186905260608201859052608082019390935230818301528851808203909201825260c0019097528651969093019590952086959192906080523060c05261012052505060018054336001600160a01b031991821617909155600280549091166001600160a01b03949094169390931790925550620001d9915050565b600060208284031215620001ba57600080fd5b81516001600160a01b0381168114620001d257600080fd5b9392505050565b60805160a05160c05160e0516101005161012051615e67620002296000396000613cde01526000613d2d01526000613d0801526000613c6101526000613c8b01526000613cb50152615e676000f3fe608060405234801561001057600080fd5b50600436106103625760003560e01c806384ebaa62116101c8578063b890687e11610104578063d9c2427d116100a2578063e61333011161007c578063e61333011461086d578063f4a215c314610880578063f6bc2eee14610893578063fde6f721146108a657600080fd5b8063d9c2427d14610824578063de8925bf14610837578063e0feb2291461085a57600080fd5b8063c05435f1116100de578063c05435f1146107b9578063c53a0292146107cc578063cd6269ea146107d4578063cf6fc6e3146107f757600080fd5b8063b890687e14610768578063bc1ed74c14610793578063bf15fcd8146107a657600080fd5b80639343586511610171578063a24276641161014b578063a24276641461039a578063ada1a1ef1461071d578063b311f62f14610730578063b3bab08b1461074357600080fd5b806393435865146106ea578063952f04e8146106f7578063961d5b1e1461070a57600080fd5b80638da5cb5b116101a25780638da5cb5b146106995780638dd387e9146106c45780639296489f146106d757600080fd5b806384ebaa6214610648578063871919d5146106735780638bc4efcb1461068657600080fd5b80633ba4fbd4116102a257806370ae92d211610240578063792fb31f1161021a578063792fb31f146105ef5780637e54f092146106025780637f29a59d1461062257806381c234d31461063557600080fd5b806370ae92d21461059457806372c244a8146105b457806377421b9e146105c757600080fd5b80634ff1c7e41161027c5780634ff1c7e41461053357806354dd5f741461054757806363592c2b1461056e5780636b0406e41461058157600080fd5b80633ba4fbd4146104da57806343db200c146104fd5780634b9326211461052057600080fd5b8063296637bf1161030f57806332565d61116102e957806332565d6114610481578063331f9d1b14610494578063332f665b146104a75780633644e515146104d257600080fd5b8063296637bf1461042e5780632a732efe14610441578063303081ab1461045457600080fd5b8063148254c111610340578063148254c1146103d05780631b2ea8cb146104065780631dd6179e1461041b57600080fd5b80630154a04a14610367578063025550f21461039a578063057702e9146103ad575b600080fd5b610387610375366004614f00565b600b6020526000908152604090205481565b6040519081526020015b60405180910390f35b6103876103a836600461522b565b6108b3565b6103c06103bb366004615286565b6108d5565b6040519015158152602001610391565b6103f36103de3660046152df565b600e60205260009081526040902054600f0b81565b604051600f9190910b8152602001610391565b6104196104143660046152fc565b6109a2565b005b61038761042936600461534e565b610e50565b61038761043c366004615383565b610f66565b6103c061044f36600461534e565b610f7d565b6104676104623660046153af565b611027565b60408051600f93840b81529190920b602082015201610391565b6103c061048f366004615286565b6110f0565b6103876104a23660046153f5565b6111b8565b6103876104b5366004615446565b600860209081526000928352604080842090915290825290205481565b6103876114b0565b6103f36104e83660046152df565b600d60205260009081526040902054600f0b81565b6103c061050b366004614f00565b600a6020526000908152604090205460ff1681565b61041961052e36600461534e565b6114bf565b6003546103f390600160801b9004600f0b81565b6103877ff7c7de5fedfe85698b956b3fa411f92d1336fc4610e845ed658bbdd19973db0c81565b6103c061057c366004614f00565b421090565b61041961058f36600461546b565b6115da565b6103876105a23660046152df565b60006020819052908152604090205481565b6104196105c2366004615499565b611667565b6105da6105d53660046154fe565b6116d4565b60408051928352602083019190915201610391565b6105da6105fd3660046154fe565b6116f4565b610387610610366004614f00565b60009081526005602052604090205490565b6104196106303660046155c6565b612195565b610419610643366004615632565b6123b5565b610387610656366004615446565b600960209081526000928352604080842090915290825290205481565b6103c0610681366004615286565b612428565b61041961069436600461546b565b6124f0565b6001546106ac906001600160a01b031681565b6040516001600160a01b039091168152602001610391565b6104196106d2366004615632565b61257d565b6105da6106e536600461564f565b6125f3565b6003546103f390600f0b81565b61041961070536600461546b565b612689565b6103c06107183660046155c6565b612716565b61041961072b366004615632565b6128d3565b61041961073e36600461546b565b612949565b6103f36107513660046152df565b600f60208190526000918252604090912054900b81565b610387610776366004615446565b600760209081526000928352604080842090915290825290205481565b6103876107a1366004614f00565b6129d6565b6103876107b4366004615700565b612a3c565b6103876107c7366004615750565b612ab5565b610419612bca565b6103f36107e23660046152df565b600c60205260009081526040902054600f0b81565b6103c0610805366004615785565b6001600160a01b03919091166000908152602081905260409020541490565b6104196108323660046157b1565b612bd6565b6103f36108453660046152df565b601060205260009081526040902054600f0b81565b6103876108683660046152fc565b612e37565b6103c061087b3660046155c6565b6131fa565b61038761088e366004615383565b613391565b6104196108a136600461546b565b6133b5565b6004546103f390600f0b81565b60006108cb8484846801000000000000000080613442565b90505b9392505050565b60008061092b836040518060400160405280600681526020017f50483a2067740000000000000000000000000000000000000000000000000000815250866001600160a01b03166138419092919063ffffffff16565b905080516020146109835760405162461bcd60e51b815260206004820152601760248201527f50483a20696e76616c69642063616c6c20726573756c7400000000000000000060448201526064015b60405180910390fd5b8481806020019051810190610998919061580b565b1195945050505050565b600254600160a01b900460ff166109ef5760405162461bcd60e51b81526020600482015260116024820152704c4f503a204c6f636b656420737461746560781b604482015260640161097a565b6002805460ff60a01b19169055610140820151421115610a465760405162461bcd60e51b81526020600482015260126024820152711313d40e8813dc99195c881b585d1d5c995960721b604482015260640161097a565b6000610a5183610e50565b6000818152600a602052604090205490915060ff1615610ab35760405162461bcd60e51b815260206004820152601760248201527f4c4f503a204f726465722069732064656661756c746564000000000000000000604482015260640161097a565b60008181526007602090815260408083206001600160a01b0386168085529083528184205485855260088452828520828652845282852054868652600985528386209286529190935292205490919080610b4f5760405162461bcd60e51b815260206004820152601760248201527f4c4f503a204d617267696e2063616e6e6f742062652030000000000000000000604482015260640161097a565b6000610b5c8786886108b3565b9050808210610bad5760405162461bcd60e51b815260206004820152601960248201527f4c4f503a204d617267696e2069732073756666696369656e7400000000000000604482015260640161097a565b60006001600160a01b0387163314610bd257600354610bcf90600f0b84613934565b90505b6000610bde828561583a565b905060006001600160a01b0389163314610c1057600354610c0990600160801b9004600f0b83613934565b9050610c23565b600454610c2090600f0b83613934565b90505b600081831115610c3a57610c37828461583a565b90505b8a606001516001600160a01b03168a6001600160a01b03161415610cd25760608b015160008a81526007602090815260408083206001600160a01b039094168084529382528083208390558c83526008825280832084845282528083208390558c8352600982528083209383529281528282208290558b8252600a8152828220805460ff19166001179055600b905220829055610d37565b60008981526007602090815260408083206001600160a01b038e168085529083528184208490558c84526008835281842081855283528184208490558c845260098352818420908452909152812055610d2c8b8a8a613a5a565b610d378b8a89613a9a565b60408b015160608c01518515610da15760405133602482015260448101879052610da190839063a9059cbb60e01b906064015b60408051601f198184030181529190526020810180516001600160e01b03166001600160e01b031990931692909217909152613ad0565b806001600160a01b03168c6001600160a01b031614158015610dc35750600084115b15610df8576040516001600160a01b038216602482015260448101859052610df890839063a9059cbb60e01b90606401610d6a565b8215610e2e576040516001600160a01b038d16602482015260448101849052610e2e90839063a9059cbb60e01b90606401610d6a565b50506002805460ff60a01b1916600160a01b1790555050505050505050505050565b6040805161018081018252600080825260208201819052918101829052606081018290526080810182905260a0810182905260c0810182905260e0810182905261010081018290526101208101829052610140810182905261016081018290528290506108ce7ff7c7de5fedfe85698b956b3fa411f92d1336fc4610e845ed658bbdd19973db0c8285610180015180519060200120866101a0015180519060200120876101c0015180519060200120886101e0015180519060200120896102000151805190602001208a6102200151805190602001208b610240015180519060200120604051602001610f4b99989796959493929190615851565b60405160208183030381529060405280519060200120613b95565b600083610f73848461596e565b6108cb919061598d565b61020081015160408051808201909152601a81527f4c4f503a207072656469636174652063616c6c206661696c656400000000000060208201526000918291610fc7913091613841565b9050805160201461101a5760405162461bcd60e51b815260206004820152601d60248201527f4c4f503a20696e76616c6964207072656469636174652072657475726e000000604482015260640161097a565b60208101516001146108ce565b6002546040517f919726bf0000000000000000000000000000000000000000000000000000000081526001600160a01b0391821660048201528582166024820152908416604482015260648101839052608481018290526000908190736ee892B6DA8de66C83Ad69DD203050CF14ebAfeb9063919726bf9060a4016040805180830381865af41580156110be573d6000803e3d6000fd5b505050506040513d601f19601f820116820180604052508101906110e291906159af565b915091505b94509492505050565b600080611146836040518060400160405280600681526020017f50483a2065710000000000000000000000000000000000000000000000000000815250866001600160a01b03166138419092919063ffffffff16565b905080516020146111995760405162461bcd60e51b815260206004820152601760248201527f50483a20696e76616c69642063616c6c20726573756c74000000000000000000604482015260640161097a565b84818060200190518101906111ae919061580b565b1495945050505050565b6000846001600160a01b031663313ce5676040518163ffffffff1660e01b8152600401602060405180830381865afa1580156111f8573d6000803e3d6000fd5b505050506040513d602081101561120e57600080fd5b5051604080517f313ce567000000000000000000000000000000000000000000000000000000008152905160ff909216916001600160a01b0389169163313ce5679160048083019260209291908290030181865afa158015611274573d6000803e3d6000fd5b505050506040513d602081101561128a57600080fd5b505160ff16146112e1576040805162461bcd60e51b815260206004820152601f60248201527f43433a206f7261636c6520646563696d616c7320646f6e2774206d6174636800604482015290519081900360640190fd5b6000866001600160a01b031663feaf968c6040518163ffffffff1660e01b815260040160a060405180830381865afa158015611321573d6000803e3d6000fd5b505050506040513d60a081101561133757600080fd5b5060200151604080517ffeaf968c00000000000000000000000000000000000000000000000000000000815290519192506000916001600160a01b0389169163feaf968c9160048083019260a09291908290030181865afa1580156113a0573d6000803e3d6000fd5b505050506040513d60a08110156113b657600080fd5b50602001519050600085131561142c57633b9aca006113d482613bfe565b6113dd87613bfe565b6113e890600a615ac2565b6113f185613bfe565b6113fb8a8961596e565b611405919061596e565b61140f919061596e565b611419919061598d565b611423919061598d565b925050506114a7565b60008512156114865761144661144186615ace565b613bfe565b61145190600a615ac2565b633b9aca0061145f83613bfe565b61146885613bfe565b6114728a8961596e565b61147c919061596e565b61140f919061598d565b633b9aca0061149482613bfe565b61149d84613bfe565b611405898861596e565b95945050505050565b60006114ba613c54565b905090565b60608101516001600160a01b0316331461151b5760405162461bcd60e51b815260206004820152601260248201527f4c4f503a204163636573732064656e6965640000000000000000000000000000604482015260640161097a565b600061152682610e50565b60008181526005602052604090205490915060018114156115895760405162461bcd60e51b815260206004820152601360248201527f4c4f503a20616c72656164792066696c6c656400000000000000000000000000604482015260640161097a565b604080518381526020810183905233917fcbfa7d191838ece7ba4783ca3a30afd316619b7f368094b57ee7ffde9a923db1910160405180910390a25060009081526005602052604090206001905550565b6001546001600160a01b0316331461162e5760405162461bcd60e51b81526020600482015260176024820152761313d40e8813db9b1e481bdddb995c88185b1b1bddd959604a1b604482015260640161097a565b6001600160a01b0391909116600090815260106020526040902080546001600160801b0319166001600160801b03909216919091179055565b336000908152602081905260408120546116859060ff841690615aeb565b33600081815260208181526040918290208490558151848152915193945091927ffc69110dd11eb791755e4abd6b7d281bae236de95736d38a23782814be5e10db929181900390910190a25050565b6000806116e58888888888886116f4565b91509150965096945050505050565b6002546000908190600160a01b900460ff166117465760405162461bcd60e51b81526020600482015260116024820152704c4f503a204c6f636b656420737461746560781b604482015260640161097a565b6002805460ff60a01b1916905560608801516001600160a01b03163314156117b05760405162461bcd60e51b815260206004820152601960248201527f4c4f503a2073616d65206d616b657220616e642074616b657200000000000000604482015260640161097a565b8761014001514211156118055760405162461bcd60e51b815260206004820152601a60248201527f4c4f503a204f7264657220616c7265616479206d617475726564000000000000604482015260640161097a565b600061181089610e50565b6000818152600a602052604090205490915060ff16156118725760405162461bcd60e51b815260206004820152601460248201527f4c4f503a204f726465722064656661756c746564000000000000000000000000604482015260640161097a565b6000818152600960209081526040808320338452909152902054156118d95760405162461bcd60e51b815260206004820152601c60248201527f4c4f503a2053656e6465722069732061207061727469636970616e7400000000604482015260640161097a565b604080516080810182526060808c01516001600160a01b0390811683526020808e01518216818501528d850151909116838501526101008d0151151591830191909152600084815260059091529190912054600181141561197c5760405162461bcd60e51b815260206004820152601a60248201527f4c4f503a2072656d61696e696e6720616d6f756e742069732030000000000000604482015260640161097a565b60a08b01516001600160a01b031615806119a2575060a08b01516001600160a01b031633145b6119ee5760405162461bcd60e51b815260206004820152601260248201527f4c4f503a2070726976617465206f726465720000000000000000000000000000604482015260640161097a565b80611b3f57611a388b60600151848c8c8080601f016020809104026020016040519081016040528093929190818152602001838380828437600092019190915250613d7b92505050565b611a845760405162461bcd60e51b815260206004820152601260248201527f4c4f503a20626164207369676e61747572650000000000000000000000000000604482015260640161097a565b8a610100015115611a9a575060e08a0151611aa1565b5060c08a01515b60148b61022001515110611b3a57600080611acd8d610220015160148101805191516013190181529091565b91509150611adb8282613ee0565b60008581526005602052604090205415611b375760405162461bcd60e51b815260206004820152601860248201527f4c4f503a207265656e7472616e63792064657465637465640000000000000000604482015260640161097a565b50505b611b44565b600019015b6102008b01515115611ba557611b598b610f7d565b611ba55760405162461bcd60e51b815260206004820152601d60248201527f4c4f503a207072656469636174652072657475726e65642066616c7365000000604482015260640161097a565b871587151415611bf75760405162461bcd60e51b815260206004820181905260248201527f4c4f503a206f6e6c79206f6e6520616d6f756e742073686f756c642062652030604482015260640161097a565b87611d41576101008b0151879015611c975781881115611c15578197505b611c2e8c6101c001518d60e001518e60c001518b61419a565b9850611c3a888861596e565b611c44828b61596e565b1115611c925760405162461bcd60e51b815260206004820152601f60248201527f4c4f503a20546f6b656e73206c657373207468616e207468726573686f6c6400604482015260640161097a565b611d3b565b611cb08c6101e001518d60e001518e60c001518b61419a565b985081891115611cd957819850611cd68c6101c001518d60c001518e60e001518c61419a565b97505b611ce3888861596e565b611ced828b61596e565b1015611d3b5760405162461bcd60e51b815260206004820152601f60248201527f4c4f503a20546f6b656e73206c657373207468616e207468726573686f6c6400604482015260640161097a565b50611e82565b6101008b0151889015611df757611d678c6101e001518d60c001518e60e001518c61419a565b975081881115611d9057819750611d8d8c6101c001518d60e001518e60c001518b61419a565b98505b611d9a898861596e565b611da4828a61596e565b1015611df25760405162461bcd60e51b815260206004820152601f60248201527f4c4f503a20546f6b656e73206c657373207468616e207468726573686f6c6400604482015260640161097a565b611e80565b81891115611e03578198505b611e1c8c6101c001518d60c001518e60e001518c61419a565b9750611e28898861596e565b611e32828a61596e565b1115611e805760405162461bcd60e51b815260206004820152601f60248201527f4c4f503a20546f6b656e73206c657373207468616e207468726573686f6c6400604482015260640161097a565b505b600088118015611e925750600087115b611ede5760405162461bcd60e51b815260206004820152601860248201527f4c4f503a2063616e27742073776170203020616d6f756e740000000000000000604482015260640161097a565b8a610100015115611ef157869003611ef5565b8790035b6000838152600560209081526040808320600185810190915560068352928190208054909301909255815185815290810183905233917fb9ed0243fdf00f0545c63a0af8850c090d86bb46682baec4bf3c496814fe4f02910160405180910390a250600082815260076020818152604080842060608f0180516001600160a01b03908116875282855283872054898852958552815181168752828552838720958e019095558786526008808552838720825187168852808652848820548a895291865282519096168752858552838720908d0190553386529083528185208c905592909152822088905551611fed908c9085906108b3565b90506000611ffc8c85336108b3565b9050600061200d84604001516142b6565b60408581015190516323b872dd60e01b602082015233602482015230604482015260648101859052919250612054916084015b604051602081830303815290604052613ad0565b61206184604001516142b6565b61206b8383615aeb565b11156120b95760405162461bcd60e51b815260206004820152601660248201527f4c4f503a204d617267696e206e6f7420656e6f75676800000000000000000000604482015260640161097a565b6120c684604001516142b6565b604085810151865191516323b872dd60e01b60208201526001600160a01b0390921660248301523060448301526064820186905291925061210a9190608401612040565b61211784604001516142b6565b6121218483615aeb565b111561216f5760405162461bcd60e51b815260206004820152601660248201527f4c4f503a204d617267696e206e6f7420656e6f75676800000000000000000000604482015260640161097a565b50506002805460ff60a01b1916600160a01b179055509599949850939650505050505050565b8281146121e45760405162461bcd60e51b815260206004820152601860248201527f4c4f503a2061727261792073697a65206d69736d617463680000000000000000604482015260640161097a565b60008367ffffffffffffffff8111156121ff576121ff614f19565b6040519080825280601f01601f191660200182016040528015612229576020820181803683370190505b50905060005b8481101561237d5760008087878481811061224c5761224c615b03565b905060200201602081019061226191906152df565b6001600160a01b031686868581811061227c5761227c615b03565b905060200281019061228e9190615b19565b60405161229c929190615b60565b6000604051808303816000865af19150503d80600081146122d9576040519150601f19603f3d011682016040523d82523d6000602084013e6122de565b606091505b50915091508180156122f1575060008151115b1561230e578051602014801561230b575060208101516001145b91505b8161231d57600360fc1b61233f565b7f31000000000000000000000000000000000000000000000000000000000000005b84848151811061235157612351615b03565b60200101906001600160f81b031916908160001a9053505050808061237590615b70565b91505061222f565b508060405160200161238f9190615bb7565b60408051601f198184030181529082905262461bcd60e51b825261097a91600401615c28565b6001546001600160a01b031633146124095760405162461bcd60e51b81526020600482015260176024820152761313d40e8813db9b1e481bdddb995c88185b1b1bddd959604a1b604482015260640161097a565b600380546001600160801b03928316600160801b029216919091179055565b60008061247e836040518060400160405280600681526020017f50483a206c740000000000000000000000000000000000000000000000000000815250866001600160a01b03166138419092919063ffffffff16565b905080516020146124d15760405162461bcd60e51b815260206004820152601760248201527f50483a20696e76616c69642063616c6c20726573756c74000000000000000000604482015260640161097a565b84818060200190518101906124e6919061580b565b1095945050505050565b6001546001600160a01b031633146125445760405162461bcd60e51b81526020600482015260176024820152761313d40e8813db9b1e481bdddb995c88185b1b1bddd959604a1b604482015260640161097a565b6001600160a01b03919091166000908152600c6020526040902080546001600160801b0319166001600160801b03909216919091179055565b6001546001600160a01b031633146125d15760405162461bcd60e51b81526020600482015260176024820152761313d40e8813db9b1e481bdddb995c88185b1b1bddd959604a1b604482015260640161097a565b600380546001600160801b0319166001600160801b0392909216919091179055565b60008060148310156126475760405162461bcd60e51b815260206004820152601a60248201527f4c4f503a207065726d6974206c656e67746820746f6f206c6f77000000000000604482015260640161097a565b6000366000612656878761437f565b9250925092506126678383836143a8565b6126758d8d8d8d8d8d6116f4565b945094505050509850989650505050505050565b6001546001600160a01b031633146126dd5760405162461bcd60e51b81526020600482015260176024820152761313d40e8813db9b1e481bdddb995c88185b1b1bddd959604a1b604482015260640161097a565b6001600160a01b03919091166000908152600e6020526040902080546001600160801b0319166001600160801b03909216919091179055565b60008382146127675760405162461bcd60e51b815260206004820152601d60248201527f50483a20696e7075742061727261792073697a65206d69736d61746368000000604482015260640161097a565b60005b848110156128c557600061283c85858481811061278957612789615b03565b905060200281019061279b9190615b19565b8080601f0160208091040260200160405190810160405280939291908181526020018383808284376000920191909152505060408051808201909152601881527f50483a2027616e64272073756263616c6c206661696c65640000000000000000602082015291508a9050898681811061281757612817615b03565b905060200201602081019061282c91906152df565b6001600160a01b03169190613841565b9050805160201461288f5760405162461bcd60e51b815260206004820152601760248201527f50483a20696e76616c69642063616c6c20726573756c74000000000000000000604482015260640161097a565b808060200190518101906128a39190615c3b565b6128b2576000925050506128cb565b50806128bd81615b70565b91505061276a565b50600190505b949350505050565b6001546001600160a01b031633146129275760405162461bcd60e51b81526020600482015260176024820152761313d40e8813db9b1e481bdddb995c88185b1b1bddd959604a1b604482015260640161097a565b600480546001600160801b0319166001600160801b0392909216919091179055565b6001546001600160a01b0316331461299d5760405162461bcd60e51b81526020600482015260176024820152761313d40e8813db9b1e481bdddb995c88185b1b1bddd959604a1b604482015260640161097a565b6001600160a01b03919091166000908152600d6020526040902080546001600160801b0319166001600160801b03909216919091179055565b60008181526005602052604081205480612a325760405162461bcd60e51b815260206004820152601260248201527f4c4f503a20556e6b6e6f776e206f726465720000000000000000000000000000604482015260640161097a565b6000190192915050565b600080612a92836040518060400160405280601781526020017f41433a2061726269747261727953746174696343616c6c000000000000000000815250866001600160a01b03166138419092919063ffffffff16565b9050808060200190516020811015612aa957600080fd5b50519150505b92915050565b600080846001600160a01b031663feaf968c6040518163ffffffff1660e01b815260040160a060405180830381865afa158015612af6573d6000803e3d6000fd5b505050506040513d60a0811015612b0c57600080fd5b50602001519050600160ff1b8416158015907f7fffffffffffffffffffffffffffffffffffffffffffffffffffffffffffffff861690612b9b57633b9aca00612b5484613bfe565b612b5f90606461596e565b82612b73886801000000000000000061596e565b612b7d919061596e565b612b87919061598d565b612b91919061598d565b93505050506108ce565b633b9aca00680100000000000000008287612bb587613bfe565b612bc090606461596e565b612b73919061596e565b612bd46001611667565b565b60008111612c265760405162461bcd60e51b815260206004820152601060248201527f4c4f503a207a65726f20616d6f756e7400000000000000000000000000000000604482015260640161097a565b826101400151421115612c705760405162461bcd60e51b81526020600482015260126024820152711313d40e8813dc99195c881b585d1d5c995960721b604482015260640161097a565b6000612c7b84610e50565b6000818152600a602052604090205490915060ff1615612cdd5760405162461bcd60e51b815260206004820152601760248201527f4c4f503a204f726465722069732064656661756c746564000000000000000000604482015260640161097a565b60008181526009602090815260408083206001600160a01b0387168452909152902054612d4c5760405162461bcd60e51b815260206004820152601760248201527f4c4f503a204e6f206d617267696e2070726f7669646564000000000000000000604482015260640161097a565b60008181526009602090815260408083206001600160a01b038716845290915281208054849290612d7e908490615aeb565b925050819055506000612d9485604001516142b6565b60408681015190516323b872dd60e01b602082015233602482015230604482015260648101869052919250612dcb91608401612040565b612dd885604001516142b6565b612de28483615aeb565b1115612e305760405162461bcd60e51b815260206004820152601660248201527f4c4f503a204d617267696e206e6f7420656e6f75676800000000000000000000604482015260640161097a565b5050505050565b600254600090600160a01b900460ff16612e875760405162461bcd60e51b81526020600482015260116024820152704c4f503a204c6f636b656420737461746560781b604482015260640161097a565b6002805460ff60a01b191690556000612e9f84610e50565b9050836101400151421180612ec257506000818152600a602052604090205460ff165b612f0e5760405162461bcd60e51b815260206004820152601a60248201527f4c4f503a204f7264657220796574206e6f74206d617475726564000000000000604482015260640161097a565b60008181526007602090815260408083206001600160a01b0387168085529083528184205485855260088452828520828652845282852054868652600985528386209286529190935292205490919080612faa5760405162461bcd60e51b815260206004820152601760248201527f4c4f503a204e6f206d617267696e2070726f7669646564000000000000000000604482015260640161097a565b6000612fca886020015189604001518a61012001518b6101400151611027565b509050836000612fda8386613934565b612fe590606461596e565b6101608b01516000898152600a6020526040812054929350909160ff161561303f57600089815260066020908152604080832054600b90925282205461302b919061598d565b90506130378188615aeb565b915050613154565b60008c6101000151801561306857508c606001516001600160a01b03168c6001600160a01b0316145b15613071575060015b8c610100015115801561309a57508c606001516001600160a01b03168c6001600160a01b031614155b156130a3575060015b6040517fefe540590000000000000000000000000000000000000000000000000000000081526004810186905260248101859052604481018890528115156064820152600f84900b6084820152736ee892B6DA8de66C83Ad69DD203050CF14ebAfeb9063efe540599060a401602060405180830381865af415801561312c573d6000803e3d6000fd5b505050506040513d601f19601f82011682018060405250810190613150919061580b565b9150505b60008981526007602090815260408083206001600160a01b038f168085529083528184208490558c84526008835281842081855283528184208490558c8452600983528184209084529091528120556040808d015190516001600160a01b038d166024820152604481018390526131d7919063a9059cbb60e01b90606401610d6a565b985050505050505050506002805460ff60a01b1916600160a01b17905592915050565b600083821461324b5760405162461bcd60e51b815260206004820152601d60248201527f50483a20696e7075742061727261792073697a65206d69736d61746368000000604482015260640161097a565b60005b848110156133855760006132fb85858481811061326d5761326d615b03565b905060200281019061327f9190615b19565b8080601f0160208091040260200160405190810160405280939291908181526020018383808284376000920191909152505060408051808201909152601781527f50483a20276f72272073756263616c6c206661696c6564000000000000000000602082015291508a9050898681811061281757612817615b03565b9050805160201461334e5760405162461bcd60e51b815260206004820152601760248201527f50483a20696e76616c69642063616c6c20726573756c74000000000000000000604482015260640161097a565b808060200190518101906133629190615c3b565b15613372576001925050506128cb565b508061337d81615b70565b91505061324e565b50600095945050505050565b6000826001816133a1878661596e565b6133ab9190615aeb565b610f73919061583a565b6001546001600160a01b031633146134095760405162461bcd60e51b81526020600482015260176024820152761313d40e8813db9b1e481bdddb995c88185b1b1bddd959604a1b604482015260640161097a565b6001600160a01b03919091166000908152600f6020526040902080546001600160801b0319166001600160801b03909216919091179055565b600042866101400151101561348e5760405162461bcd60e51b81526020600482015260126024820152711313d40e8813dc99195c881b585d1d5c995960721b604482015260640161097a565b6000858152600a602052604090205460ff16156134ed5760405162461bcd60e51b815260206004820152601460248201527f4c4f503a204f726465722064656661756c746564000000000000000000000000604482015260640161097a565b60008661010001518015613516575086606001516001600160a01b0316856001600160a01b0316145b1561351f575060015b866101000151158015613548575086606001516001600160a01b0316856001600160a01b031614155b15613551575060015b600060405180610100016040528088815260200189610120015181526020018961014001518152602001600a60008a815260200190815260200160002060009054906101000a900460ff1615158152602001896101600151600f0b8152602001600760008a81526020019081526020016000206000896001600160a01b03166001600160a01b03168152602001908152602001600020548152602001600860008a81526020019081526020016000206000896001600160a01b03166001600160a01b03168152602001908152602001600020548152602001831515815250905060006040518060e001604052808a602001516001600160a01b031681526020018a604001516001600160a01b03168152602001600c60008c602001516001600160a01b03166001600160a01b0316815260200190815260200160002060009054906101000a9004600f0b600f0b8152602001600d60008c602001516001600160a01b03166001600160a01b0316815260200190815260200160002060009054906101000a9004600f0b600f0b8152602001600e60008c602001516001600160a01b03166001600160a01b0316815260200190815260200160002060009054906101000a9004600f0b600f0b8152602001600f60008c602001516001600160a01b03166001600160a01b0316815260200190815260200160002060009054906101000a9004600f0b600f0b8152602001601060008c602001516001600160a01b03166001600160a01b0316815260200190815260200160002060009054906101000a9004600f0b600f0b8152509050736ee892B6DA8de66C83Ad69DD203050CF14ebAfeb63cc160f76600260009054906101000a90046001600160a01b031684848a8a6040518663ffffffff1660e01b81526004016137f3959493929190615c58565b602060405180830381865af4158015613810573d6000803e3d6000fd5b505050506040513d601f19601f82011682018060405250810190613834919061580b565b9998505050505050505050565b60606001600160a01b0384163b6138bf5760405162461bcd60e51b8152602060048201526024808201527f416464726573733a207374617469632063616c6c20746f206e6f6e2d636f6e7460448201527f7261637400000000000000000000000000000000000000000000000000000000606482015260840161097a565b600080856001600160a01b0316856040516138da9190615d4b565b600060405180830381855afa9150503d8060008114613915576040519150601f19603f3d011682016040523d82523d6000602084013e61391a565b606091505b509150915061392a828286614594565b9695505050505050565b60008161394357506000612aaf565b600083600f0b12156139975760405162461bcd60e51b815260206004820152600e60248201527f4c4f503a20556e646572666c6f77000000000000000000000000000000000000604482015260640161097a565b600f83900b6001600160801b038316810260401c90608084901c0277ffffffffffffffffffffffffffffffffffffffffffffffff811115613a0a5760405162461bcd60e51b815260206004820152600d60248201526c4c4f503a204f766572666c6f7760981b604482015260640161097a565b60401b8119811115613a4e5760405162461bcd60e51b815260206004820152600d60248201526c4c4f503a204f766572666c6f7760981b604482015260640161097a565b019392505050565b5050565b600082815260076020908152604080832060608701516001600160a01b0316845290915281208054839290613a9090849061583a565b9091555050505050565b600082815260086020908152604080832060608701516001600160a01b0316845290915281208054839290613a9090849061583a565b6000613b25826040518060400160405280601681526020017f4c4f503a2061737365742e63616c6c206661696c656400000000000000000000815250856001600160a01b03166145cd9092919063ffffffff16565b805190915015613b905780516020148015613b44575060208101516001145b613b905760405162461bcd60e51b815260206004820152601a60248201527f4c4f503a2061737365742e63616c6c2062616420726573756c74000000000000604482015260640161097a565b505050565b6000612aaf613ba2613c54565b836040517f19010000000000000000000000000000000000000000000000000000000000006020820152602281018390526042810182905260009060620160405160208183030381529060405280519060200120905092915050565b600080821215613c505760405162461bcd60e51b815260206004820181905260248201527f53616665436173743a2076616c7565206d75737420626520706f736974697665604482015260640161097a565b5090565b6000306001600160a01b037f000000000000000000000000000000000000000000000000000000000000000016148015613cad57507f000000000000000000000000000000000000000000000000000000000000000046145b15613cd757507f000000000000000000000000000000000000000000000000000000000000000090565b50604080517f00000000000000000000000000000000000000000000000000000000000000006020808301919091527f0000000000000000000000000000000000000000000000000000000000000000828401527f000000000000000000000000000000000000000000000000000000000000000060608301524660808301523060a0808401919091528351808403909101815260c0909201909252805191012090565b6000806000613d8a85856145dc565b90925090506000816004811115613da357613da3615d67565b148015613dc15750856001600160a01b0316826001600160a01b0316145b15613dd1576001925050506108ce565b600080876001600160a01b0316631626ba7e60e01b8888604051602401613df9929190615d7d565b60408051601f198184030181529181526020820180516001600160e01b03166001600160e01b0319909416939093179092529051613e379190615d4b565b600060405180830381855afa9150503d8060008114613e72576040519150601f19603f3d011682016040523d82523d6000602084013e613e77565b606091505b5091509150818015613e8a575080516020145b8015613ed4575080517f1626ba7e0000000000000000000000000000000000000000000000000000000090613ec89083016020908101908401615d96565b6001600160e01b031916145b98975050505050505050565b805115613a565760006060825160e0141561402057836001600160a01b031663d505accf60e01b8460405160200180836001600160e01b031916815260040182805190602001908083835b60208310613f4a5780518252601f199092019160209182019101613f2b565b6001836020036101000a038019825116818451168082178552505050505050905001925050506040516020818303038152906040526040518082805190602001908083835b60208310613fae5780518252601f199092019160209182019101613f8f565b6001836020036101000a0380198251168184511680821785525050505050509050019150506000604051808303816000865af19150503d8060008114614010576040519150601f19603f3d011682016040523d82523d6000602084013e614015565b606091505b5090925090506140cc565b8251610100141561407f57836001600160a01b0316638fcbaf0c60e01b8460405160200180836001600160e01b0319168152600401828051906020019080838360208310613f4a5780518252601f199092019160209182019101613f2b565b6040805162461bcd60e51b815260206004820152601360248201527f57726f6e67207065726d6974206c656e67746800000000000000000000000000604482015290519081900360640190fd5b8161419457614110816040518060400160405280600f81526020017f5065726d6974206661696c65643a20000000000000000000000000000000000081525061464c565b60405162461bcd60e51b81526004018080602001828103825283818151815260200191508051906020019080838360005b83811015614159578181015183820152602001614141565b50505050905090810190601f1680156141865780820380516001836020036101000a031916815260200191505b509250505060405180910390fd5b50505050565b60008451600014156141fc578382146141f55760405162461bcd60e51b815260206004820152601160248201527f4c4f503a2077726f6e6720616d6f756e74000000000000000000000000000000604482015260640161097a565b50816128cb565b60006142588684604051602001614214929190615dc0565b60408051601f19818403018152828201909152601a82527f4c4f503a20676574416d6f756e742063616c6c206661696c656400000000000060208301523091613841565b905080516020146142ab5760405162461bcd60e51b815260206004820152601d60248201527f4c4f503a20696e76616c696420676574416d6f756e742072657475726e000000604482015260640161097a565b6020015190506128cb565b60408051306024808301919091528251808303909101815260449091019091526020810180516001600160e01b03167f70a08231000000000000000000000000000000000000000000000000000000001790526000908190614322906001600160a01b03851690614a08565b905080516020146143755760405162461bcd60e51b815260206004820152601860248201527f4c4f503a20696e76616c69642063616c6c20726573756c740000000000000000604482015260640161097a565b60208101516108ce565b60003681843560601c8282614397876014818b615de2565b939650945091925050509250925092565b8015613b90576000606060e08314156144ba576040517fd505accf00000000000000000000000000000000000000000000000000000000602082018181526001600160a01b03881692879187916024018383808284378083019250505093505050506040516020818303038152906040526040518082805190602001908083835b602083106144485780518252601f199092019160209182019101614429565b6001836020036101000a0380198251168184511680821785525050505050509050019150506000604051808303816000865af19150503d80600081146144aa576040519150601f19603f3d011682016040523d82523d6000602084013e6144af565b606091505b509092509050614550565b61010083141561407f576040517f8fcbaf0c00000000000000000000000000000000000000000000000000000000602082018181526001600160a01b0388169287918791602401838380828437808301925050509350505050604051602081830303815290604052604051808280519060200190808383602083106144485780518252601f199092019160209182019101614429565b81612e3057614110816040518060400160405280600f81526020017f5065726d6974206661696c65643a20000000000000000000000000000000000081525061464c565b606083156145a35750816108ce565b8251156145b35782518084602001fd5b8160405162461bcd60e51b815260040161097a9190615c28565b60606108cb8484600085614a2d565b6000808251604114156146135760208301516040840151606085015160001a61460787828585614b75565b94509450505050614645565b82516040141561463d5760208301516040840151614632868383614c5f565b935093505050614645565b506000905060025b9250929050565b606060048351106149125760208301516001600160e01b0319811662461bcd60e51b14801561467d57506044845110155b156147ee5760248481015180860182018051919290919061469f908490615aeb565b6146a99190615aeb565b865110156146fe576040805162461bcd60e51b815260206004820152601560248201527f496e76616c69642072657665727420726561736f6e0000000000000000000000604482015290519081900360640190fd5b84816040516020018083805190602001908083835b602083106147325780518252601f199092019160209182019101614713565b51815160209384036101000a60001901801990921691161790527f4572726f72280000000000000000000000000000000000000000000000000000919093019081528451600690910192850191508083835b602083106147a35780518252601f199092019160209182019101614784565b6001836020036101000a03801982511681845116808217855250505050505090500180602960f81b815250600101925050506040516020818303038152906040529350505050612aaf565b6001600160e01b03198116634e487b7160e01b14801561480f575083516024145b156149105760248401518361482382614cb1565b6040516020018083805190602001908083835b602083106148555780518252601f199092019160209182019101614836565b51815160209384036101000a60001901801990921691161790527f50616e6963280000000000000000000000000000000000000000000000000000919093019081528451600690910192850191508083835b602083106148c65780518252601f1990920191602091820191016148a7565b6001836020036101000a03801982511681845116808217855250505050505090500180602960f81b8152506001019250505060405160208183030381529060405292505050612aaf565b505b8161491c84614cd7565b6040516020018083805190602001908083835b6020831061494e5780518252601f19909201916020918201910161492f565b51815160209384036101000a60001901801990921691161790527f556e6b6e6f776e28000000000000000000000000000000000000000000000000919093019081528451600890910192850191508083835b602083106149bf5780518252601f1990920191602091820191016149a0565b6001836020036101000a03801982511681845116808217855250505050505090500180602960f81b81525060010192505050604051602081830303815290604052905092915050565b60606108ce8383604051806060016040528060258152602001615e0d60259139613841565b606082471015614aa55760405162461bcd60e51b815260206004820152602660248201527f416464726573733a20696e73756666696369656e742062616c616e636520666f60448201527f722063616c6c0000000000000000000000000000000000000000000000000000606482015260840161097a565b6001600160a01b0385163b614afc5760405162461bcd60e51b815260206004820152601d60248201527f416464726573733a2063616c6c20746f206e6f6e2d636f6e7472616374000000604482015260640161097a565b600080866001600160a01b03168587604051614b189190615d4b565b60006040518083038185875af1925050503d8060008114614b55576040519150601f19603f3d011682016040523d82523d6000602084013e614b5a565b606091505b5091509150614b6a828286614594565b979650505050505050565b6000807f7fffffffffffffffffffffffffffffff5d576e7357a4501ddfe92f46681b20a0831115614bac57506000905060036110e7565b8460ff16601b14158015614bc457508460ff16601c14155b15614bd557506000905060046110e7565b6040805160008082526020820180845289905260ff881692820192909252606081018690526080810185905260019060a0016020604051602081039080840390855afa158015614c29573d6000803e3d6000fd5b5050604051601f1901519150506001600160a01b038116614c52576000600192509250506110e7565b9660009650945050505050565b6000807f7fffffffffffffffffffffffffffffffffffffffffffffffffffffffffffffff831681614c9560ff86901c601b615aeb565b9050614ca387828885614b75565b935093505050935093915050565b6060612aaf82604051602001808281526020019150506040516020818303038152906040525b80516060907f303132333435363738396162636465660000000000000000000000000000000090600090614d0c90600261596e565b614d17906002615aeb565b67ffffffffffffffff811115614d2f57614d2f614f19565b6040519080825280601f01601f191660200182016040528015614d59576020820181803683370190505b509050600360fc1b81600081518110614d7457614d74615b03565b60200101906001600160f81b031916908160001a9053507f780000000000000000000000000000000000000000000000000000000000000081600181518110614dbf57614dbf615b03565b60200101906001600160f81b031916908160001a90535060005b8451811015614ef857826004868381518110614df757614df7615b03565b01602001517fff0000000000000000000000000000000000000000000000000000000000000016901c60f81c60108110614e3357614e33615b03565b1a60f81b82614e4383600261596e565b614e4e906002615aeb565b81518110614e5e57614e5e615b03565b60200101906001600160f81b031916908160001a90535082858281518110614e8857614e88615b03565b60209101015160f81c600f1660108110614ea457614ea4615b03565b1a60f81b82614eb483600261596e565b614ebf906003615aeb565b81518110614ecf57614ecf615b03565b60200101906001600160f81b031916908160001a90535080614ef081615b70565b915050614dd9565b509392505050565b600060208284031215614f1257600080fd5b5035919050565b634e487b7160e01b600052604160045260246000fd5b604051610260810167ffffffffffffffff81118282101715614f5357614f53614f19565b60405290565b6001600160a01b0381168114614f6e57600080fd5b50565b8035614f7c81614f59565b919050565b8015158114614f6e57600080fd5b8035614f7c81614f81565b80600f0b8114614f6e57600080fd5b8035614f7c81614f9a565b600082601f830112614fc557600080fd5b813567ffffffffffffffff80821115614fe057614fe0614f19565b604051601f8301601f19908116603f0116810190828211818310171561500857615008614f19565b8160405283815286602085880101111561502157600080fd5b836020870160208301376000602085830101528094505050505092915050565b6000610260828403121561505457600080fd5b61505c614f2f565b90508135815261506e60208301614f71565b602082015261507f60408301614f71565b604082015261509060608301614f71565b60608201526150a160808301614f71565b60808201526150b260a08301614f71565b60a082015260c082013560c082015260e082013560e08201526101006150d9818401614f8f565b9082015261012082810135908201526101408083013590820152610160615101818401614fa9565b908201526101808281013567ffffffffffffffff8082111561512257600080fd5b61512e86838701614fb4565b838501526101a092508285013591508082111561514a57600080fd5b61515686838701614fb4565b838501526101c092508285013591508082111561517257600080fd5b61517e86838701614fb4565b838501526101e092508285013591508082111561519a57600080fd5b6151a686838701614fb4565b838501526102009250828501359150808211156151c257600080fd5b6151ce86838701614fb4565b838501526102209250828501359150808211156151ea57600080fd5b6151f686838701614fb4565b8385015261024092508285013591508082111561521257600080fd5b5061521f85828601614fb4565b82840152505092915050565b60008060006060848603121561524057600080fd5b833567ffffffffffffffff81111561525757600080fd5b61526386828701615041565b93505060208401359150604084013561527b81614f59565b809150509250925092565b60008060006060848603121561529b57600080fd5b8335925060208401356152ad81614f59565b9150604084013567ffffffffffffffff8111156152c957600080fd5b6152d586828701614fb4565b9150509250925092565b6000602082840312156152f157600080fd5b81356108ce81614f59565b6000806040838503121561530f57600080fd5b823567ffffffffffffffff81111561532657600080fd5b61533285828601615041565b925050602083013561534381614f59565b809150509250929050565b60006020828403121561536057600080fd5b813567ffffffffffffffff81111561537757600080fd5b6128cb84828501615041565b60008060006060848603121561539857600080fd5b505081359360208301359350604090920135919050565b600080600080608085870312156153c557600080fd5b84356153d081614f59565b935060208501356153e081614f59565b93969395505050506040820135916060013590565b600080600080600060a0868803121561540d57600080fd5b853561541881614f59565b9450602086013561542881614f59565b94979496505050506040830135926060810135926080909101359150565b6000806040838503121561545957600080fd5b82359150602083013561534381614f59565b6000806040838503121561547e57600080fd5b823561548981614f59565b9150602083013561534381614f9a565b6000602082840312156154ab57600080fd5b813560ff811681146108ce57600080fd5b60008083601f8401126154ce57600080fd5b50813567ffffffffffffffff8111156154e657600080fd5b60208301915083602082850101111561464557600080fd5b60008060008060008060a0878903121561551757600080fd5b863567ffffffffffffffff8082111561552f57600080fd5b61553b8a838b01615041565b9750602089013591508082111561555157600080fd5b5061555e89828a016154bc565b979a90995096976040810135976060820135975060809091013595509350505050565b60008083601f84011261559357600080fd5b50813567ffffffffffffffff8111156155ab57600080fd5b6020830191508360208260051b850101111561464557600080fd5b600080600080604085870312156155dc57600080fd5b843567ffffffffffffffff808211156155f457600080fd5b61560088838901615581565b9096509450602087013591508082111561561957600080fd5b5061562687828801615581565b95989497509550505050565b60006020828403121561564457600080fd5b81356108ce81614f9a565b60008060008060008060008060c0898b03121561566b57600080fd5b883567ffffffffffffffff8082111561568357600080fd5b61568f8c838d01615041565b995060208b01359150808211156156a557600080fd5b6156b18c838d016154bc565b909950975060408b0135965060608b0135955060808b0135945060a08b01359150808211156156df57600080fd5b506156ec8b828c016154bc565b999c989b5096995094979396929594505050565b6000806040838503121561571357600080fd5b823561571e81614f59565b9150602083013567ffffffffffffffff81111561573a57600080fd5b61574685828601614fb4565b9150509250929050565b60008060006060848603121561576557600080fd5b833561577081614f59565b95602085013595506040909401359392505050565b6000806040838503121561579857600080fd5b82356157a381614f59565b946020939093013593505050565b6000806000606084860312156157c657600080fd5b833567ffffffffffffffff8111156157dd57600080fd5b6157e986828701615041565b93505060208401356157fa81614f59565b929592945050506040919091013590565b60006020828403121561581d57600080fd5b5051919050565b634e487b7160e01b600052601160045260246000fd5b60008282101561584c5761584c615824565b500390565b6000610280820190508a82528951602083015260208a015161587e60408401826001600160a01b03169052565b5060408a01516001600160a01b03811660608401525060608a01516001600160a01b03811660808401525060808a01516001600160a01b03811660a08401525060a08a01516001600160a01b03811660c08401525060c08a015160e083015260e08a01516101008181850152808c01519150506101206159018185018315159052565b8b0151610140848101919091528b0151610160808501919091528b01519050615930610180840182600f0b9052565b506101a08201989098526101c08101969096526101e08601949094526102008501929092526102208401526102408301526102609091015292915050565b600081600019048311821515161561598857615988615824565b500290565b6000826159aa57634e487b7160e01b600052601260045260246000fd5b500490565b600080604083850312156159c257600080fd5b82516159cd81614f9a565b602084015190925061534381614f9a565b600181815b80851115615a195781600019048211156159ff576159ff615824565b80851615615a0c57918102915b93841c93908002906159e3565b509250929050565b600082615a3057506001612aaf565b81615a3d57506000612aaf565b8160018114615a535760028114615a5d57615a79565b6001915050612aaf565b60ff841115615a6e57615a6e615824565b50506001821b612aaf565b5060208310610133831016604e8410600b8410161715615a9c575081810a612aaf565b615aa683836159de565b8060001904821115615aba57615aba615824565b029392505050565b60006108ce8383615a21565b6000600160ff1b821415615ae457615ae4615824565b5060000390565b60008219821115615afe57615afe615824565b500190565b634e487b7160e01b600052603260045260246000fd5b6000808335601e19843603018112615b3057600080fd5b83018035915067ffffffffffffffff821115615b4b57600080fd5b60200191503681900382131561464557600080fd5b8183823760009101908152919050565b6000600019821415615b8457615b84615824565b5060010190565b60005b83811015615ba6578181015183820152602001615b8e565b838111156141945750506000910152565b7f43414c4c5f524553554c54535f00000000000000000000000000000000000000815260008251615bef81600d850160208701615b8b565b91909101600d0192915050565b60008151808452615c14816020860160208601615b8b565b601f01601f19169290920160200192915050565b6020815260006108ce6020830184615bfc565b600060208284031215615c4d57600080fd5b81516108ce81614f81565b6000610240820190506001600160a01b03871682528551602083015260208601516040830152604086015160608301526060860151151560808301526080860151600f0b60a083015260a086015160c083015260c086015160e083015260e08601511515610100830152615d2b6101208301866001600160a01b03808251168352806020830151166020840152506040810151600f0b60408301526060810151600f0b60608301526080810151600f0b608083015260a0810151600f0b60a083015260c0810151600f0b60c08301525050565b615d3b610200830185600f0b9052565b61392a610220830184600f0b9052565b60008251615d5d818460208701615b8b565b9190910192915050565b634e487b7160e01b600052602160045260246000fd5b8281526040602082015260006108cb6040830184615bfc565b600060208284031215615da857600080fd5b81516001600160e01b0319811681146108ce57600080fd5b60008351615dd2818460208801615b8b565b9190910191825250602001919050565b60008085851115615df257600080fd5b83861115615dff57600080fd5b505082019391909203915056fe416464726573733a206c6f772d6c6576656c207374617469632063616c6c206661696c6564a2646970667358221220ab0d4511637a7ca57f08a99eb4e7abb130fc9cc9ad3fe177d9ba846a766dd5cf64736f6c634300080b0033",
  "deployedBytecode": "0x608060405234801561001057600080fd5b50600436106103625760003560e01c806384ebaa62116101c8578063b890687e11610104578063d9c2427d116100a2578063e61333011161007c578063e61333011461086d578063f4a215c314610880578063f6bc2eee14610893578063fde6f721146108a657600080fd5b8063d9c2427d14610824578063de8925bf14610837578063e0feb2291461085a57600080fd5b8063c05435f1116100de578063c05435f1146107b9578063c53a0292146107cc578063cd6269ea146107d4578063cf6fc6e3146107f757600080fd5b8063b890687e14610768578063bc1ed74c14610793578063bf15fcd8146107a657600080fd5b80639343586511610171578063a24276641161014b578063a24276641461039a578063ada1a1ef1461071d578063b311f62f14610730578063b3bab08b1461074357600080fd5b806393435865146106ea578063952f04e8146106f7578063961d5b1e1461070a57600080fd5b80638da5cb5b116101a25780638da5cb5b146106995780638dd387e9146106c45780639296489f146106d757600080fd5b806384ebaa6214610648578063871919d5146106735780638bc4efcb1461068657600080fd5b80633ba4fbd4116102a257806370ae92d211610240578063792fb31f1161021a578063792fb31f146105ef5780637e54f092146106025780637f29a59d1461062257806381c234d31461063557600080fd5b806370ae92d21461059457806372c244a8146105b457806377421b9e146105c757600080fd5b80634ff1c7e41161027c5780634ff1c7e41461053357806354dd5f741461054757806363592c2b1461056e5780636b0406e41461058157600080fd5b80633ba4fbd4146104da57806343db200c146104fd5780634b9326211461052057600080fd5b8063296637bf1161030f57806332565d61116102e957806332565d6114610481578063331f9d1b14610494578063332f665b146104a75780633644e515146104d257600080fd5b8063296637bf1461042e5780632a732efe14610441578063303081ab1461045457600080fd5b8063148254c111610340578063148254c1146103d05780631b2ea8cb146104065780631dd6179e1461041b57600080fd5b80630154a04a14610367578063025550f21461039a578063057702e9146103ad575b600080fd5b610387610375366004614f00565b600b6020526000908152604090205481565b6040519081526020015b60405180910390f35b6103876103a836600461522b565b6108b3565b6103c06103bb366004615286565b6108d5565b6040519015158152602001610391565b6103f36103de3660046152df565b600e60205260009081526040902054600f0b81565b604051600f9190910b8152602001610391565b6104196104143660046152fc565b6109a2565b005b61038761042936600461534e565b610e50565b61038761043c366004615383565b610f66565b6103c061044f36600461534e565b610f7d565b6104676104623660046153af565b611027565b60408051600f93840b81529190920b602082015201610391565b6103c061048f366004615286565b6110f0565b6103876104a23660046153f5565b6111b8565b6103876104b5366004615446565b600860209081526000928352604080842090915290825290205481565b6103876114b0565b6103f36104e83660046152df565b600d60205260009081526040902054600f0b81565b6103c061050b366004614f00565b600a6020526000908152604090205460ff1681565b61041961052e36600461534e565b6114bf565b6003546103f390600160801b9004600f0b81565b6103877ff7c7de5fedfe85698b956b3fa411f92d1336fc4610e845ed658bbdd19973db0c81565b6103c061057c366004614f00565b421090565b61041961058f36600461546b565b6115da565b6103876105a23660046152df565b60006020819052908152604090205481565b6104196105c2366004615499565b611667565b6105da6105d53660046154fe565b6116d4565b60408051928352602083019190915201610391565b6105da6105fd3660046154fe565b6116f4565b610387610610366004614f00565b60009081526005602052604090205490565b6104196106303660046155c6565b612195565b610419610643366004615632565b6123b5565b610387610656366004615446565b600960209081526000928352604080842090915290825290205481565b6103c0610681366004615286565b612428565b61041961069436600461546b565b6124f0565b6001546106ac906001600160a01b031681565b6040516001600160a01b039091168152602001610391565b6104196106d2366004615632565b61257d565b6105da6106e536600461564f565b6125f3565b6003546103f390600f0b81565b61041961070536600461546b565b612689565b6103c06107183660046155c6565b612716565b61041961072b366004615632565b6128d3565b61041961073e36600461546b565b612949565b6103f36107513660046152df565b600f60208190526000918252604090912054900b81565b610387610776366004615446565b600760209081526000928352604080842090915290825290205481565b6103876107a1366004614f00565b6129d6565b6103876107b4366004615700565b612a3c565b6103876107c7366004615750565b612ab5565b610419612bca565b6103f36107e23660046152df565b600c60205260009081526040902054600f0b81565b6103c0610805366004615785565b6001600160a01b03919091166000908152602081905260409020541490565b6104196108323660046157b1565b612bd6565b6103f36108453660046152df565b601060205260009081526040902054600f0b81565b6103876108683660046152fc565b612e37565b6103c061087b3660046155c6565b6131fa565b61038761088e366004615383565b613391565b6104196108a136600461546b565b6133b5565b6004546103f390600f0b81565b60006108cb8484846801000000000000000080613442565b90505b9392505050565b60008061092b836040518060400160405280600681526020017f50483a2067740000000000000000000000000000000000000000000000000000815250866001600160a01b03166138419092919063ffffffff16565b905080516020146109835760405162461bcd60e51b815260206004820152601760248201527f50483a20696e76616c69642063616c6c20726573756c7400000000000000000060448201526064015b60405180910390fd5b8481806020019051810190610998919061580b565b1195945050505050565b600254600160a01b900460ff166109ef5760405162461bcd60e51b81526020600482015260116024820152704c4f503a204c6f636b656420737461746560781b604482015260640161097a565b6002805460ff60a01b19169055610140820151421115610a465760405162461bcd60e51b81526020600482015260126024820152711313d40e8813dc99195c881b585d1d5c995960721b604482015260640161097a565b6000610a5183610e50565b6000818152600a602052604090205490915060ff1615610ab35760405162461bcd60e51b815260206004820152601760248201527f4c4f503a204f726465722069732064656661756c746564000000000000000000604482015260640161097a565b60008181526007602090815260408083206001600160a01b0386168085529083528184205485855260088452828520828652845282852054868652600985528386209286529190935292205490919080610b4f5760405162461bcd60e51b815260206004820152601760248201527f4c4f503a204d617267696e2063616e6e6f742062652030000000000000000000604482015260640161097a565b6000610b5c8786886108b3565b9050808210610bad5760405162461bcd60e51b815260206004820152601960248201527f4c4f503a204d617267696e2069732073756666696369656e7400000000000000604482015260640161097a565b60006001600160a01b0387163314610bd257600354610bcf90600f0b84613934565b90505b6000610bde828561583a565b905060006001600160a01b0389163314610c1057600354610c0990600160801b9004600f0b83613934565b9050610c23565b600454610c2090600f0b83613934565b90505b600081831115610c3a57610c37828461583a565b90505b8a606001516001600160a01b03168a6001600160a01b03161415610cd25760608b015160008a81526007602090815260408083206001600160a01b039094168084529382528083208390558c83526008825280832084845282528083208390558c8352600982528083209383529281528282208290558b8252600a8152828220805460ff19166001179055600b905220829055610d37565b60008981526007602090815260408083206001600160a01b038e168085529083528184208490558c84526008835281842081855283528184208490558c845260098352818420908452909152812055610d2c8b8a8a613a5a565b610d378b8a89613a9a565b60408b015160608c01518515610da15760405133602482015260448101879052610da190839063a9059cbb60e01b906064015b60408051601f198184030181529190526020810180516001600160e01b03166001600160e01b031990931692909217909152613ad0565b806001600160a01b03168c6001600160a01b031614158015610dc35750600084115b15610df8576040516001600160a01b038216602482015260448101859052610df890839063a9059cbb60e01b90606401610d6a565b8215610e2e576040516001600160a01b038d16602482015260448101849052610e2e90839063a9059cbb60e01b90606401610d6a565b50506002805460ff60a01b1916600160a01b1790555050505050505050505050565b6040805161018081018252600080825260208201819052918101829052606081018290526080810182905260a0810182905260c0810182905260e0810182905261010081018290526101208101829052610140810182905261016081018290528290506108ce7ff7c7de5fedfe85698b956b3fa411f92d1336fc4610e845ed658bbdd19973db0c8285610180015180519060200120866101a0015180519060200120876101c0015180519060200120886101e0015180519060200120896102000151805190602001208a6102200151805190602001208b610240015180519060200120604051602001610f4b99989796959493929190615851565b60405160208183030381529060405280519060200120613b95565b600083610f73848461596e565b6108cb919061598d565b61020081015160408051808201909152601a81527f4c4f503a207072656469636174652063616c6c206661696c656400000000000060208201526000918291610fc7913091613841565b9050805160201461101a5760405162461bcd60e51b815260206004820152601d60248201527f4c4f503a20696e76616c6964207072656469636174652072657475726e000000604482015260640161097a565b60208101516001146108ce565b6002546040517f919726bf0000000000000000000000000000000000000000000000000000000081526001600160a01b039182166004820152858216602482015290841660448201526064810183905260848101829052600090819073__$caed8c4ffcf81826f6594109f9ec2a0e3a$__9063919726bf9060a4016040805180830381865af41580156110be573d6000803e3d6000fd5b505050506040513d601f19601f820116820180604052508101906110e291906159af565b915091505b94509492505050565b600080611146836040518060400160405280600681526020017f50483a2065710000000000000000000000000000000000000000000000000000815250866001600160a01b03166138419092919063ffffffff16565b905080516020146111995760405162461bcd60e51b815260206004820152601760248201527f50483a20696e76616c69642063616c6c20726573756c74000000000000000000604482015260640161097a565b84818060200190518101906111ae919061580b565b1495945050505050565b6000846001600160a01b031663313ce5676040518163ffffffff1660e01b8152600401602060405180830381865afa1580156111f8573d6000803e3d6000fd5b505050506040513d602081101561120e57600080fd5b5051604080517f313ce567000000000000000000000000000000000000000000000000000000008152905160ff909216916001600160a01b0389169163313ce5679160048083019260209291908290030181865afa158015611274573d6000803e3d6000fd5b505050506040513d602081101561128a57600080fd5b505160ff16146112e1576040805162461bcd60e51b815260206004820152601f60248201527f43433a206f7261636c6520646563696d616c7320646f6e2774206d6174636800604482015290519081900360640190fd5b6000866001600160a01b031663feaf968c6040518163ffffffff1660e01b815260040160a060405180830381865afa158015611321573d6000803e3d6000fd5b505050506040513d60a081101561133757600080fd5b5060200151604080517ffeaf968c00000000000000000000000000000000000000000000000000000000815290519192506000916001600160a01b0389169163feaf968c9160048083019260a09291908290030181865afa1580156113a0573d6000803e3d6000fd5b505050506040513d60a08110156113b657600080fd5b50602001519050600085131561142c57633b9aca006113d482613bfe565b6113dd87613bfe565b6113e890600a615ac2565b6113f185613bfe565b6113fb8a8961596e565b611405919061596e565b61140f919061596e565b611419919061598d565b611423919061598d565b925050506114a7565b60008512156114865761144661144186615ace565b613bfe565b61145190600a615ac2565b633b9aca0061145f83613bfe565b61146885613bfe565b6114728a8961596e565b61147c919061596e565b61140f919061598d565b633b9aca0061149482613bfe565b61149d84613bfe565b611405898861596e565b95945050505050565b60006114ba613c54565b905090565b60608101516001600160a01b0316331461151b5760405162461bcd60e51b815260206004820152601260248201527f4c4f503a204163636573732064656e6965640000000000000000000000000000604482015260640161097a565b600061152682610e50565b60008181526005602052604090205490915060018114156115895760405162461bcd60e51b815260206004820152601360248201527f4c4f503a20616c72656164792066696c6c656400000000000000000000000000604482015260640161097a565b604080518381526020810183905233917fcbfa7d191838ece7ba4783ca3a30afd316619b7f368094b57ee7ffde9a923db1910160405180910390a25060009081526005602052604090206001905550565b6001546001600160a01b0316331461162e5760405162461bcd60e51b81526020600482015260176024820152761313d40e8813db9b1e481bdddb995c88185b1b1bddd959604a1b604482015260640161097a565b6001600160a01b0391909116600090815260106020526040902080546001600160801b0319166001600160801b03909216919091179055565b336000908152602081905260408120546116859060ff841690615aeb565b33600081815260208181526040918290208490558151848152915193945091927ffc69110dd11eb791755e4abd6b7d281bae236de95736d38a23782814be5e10db929181900390910190a25050565b6000806116e58888888888886116f4565b91509150965096945050505050565b6002546000908190600160a01b900460ff166117465760405162461bcd60e51b81526020600482015260116024820152704c4f503a204c6f636b656420737461746560781b604482015260640161097a565b6002805460ff60a01b1916905560608801516001600160a01b03163314156117b05760405162461bcd60e51b815260206004820152601960248201527f4c4f503a2073616d65206d616b657220616e642074616b657200000000000000604482015260640161097a565b8761014001514211156118055760405162461bcd60e51b815260206004820152601a60248201527f4c4f503a204f7264657220616c7265616479206d617475726564000000000000604482015260640161097a565b600061181089610e50565b6000818152600a602052604090205490915060ff16156118725760405162461bcd60e51b815260206004820152601460248201527f4c4f503a204f726465722064656661756c746564000000000000000000000000604482015260640161097a565b6000818152600960209081526040808320338452909152902054156118d95760405162461bcd60e51b815260206004820152601c60248201527f4c4f503a2053656e6465722069732061207061727469636970616e7400000000604482015260640161097a565b604080516080810182526060808c01516001600160a01b0390811683526020808e01518216818501528d850151909116838501526101008d0151151591830191909152600084815260059091529190912054600181141561197c5760405162461bcd60e51b815260206004820152601a60248201527f4c4f503a2072656d61696e696e6720616d6f756e742069732030000000000000604482015260640161097a565b60a08b01516001600160a01b031615806119a2575060a08b01516001600160a01b031633145b6119ee5760405162461bcd60e51b815260206004820152601260248201527f4c4f503a2070726976617465206f726465720000000000000000000000000000604482015260640161097a565b80611b3f57611a388b60600151848c8c8080601f016020809104026020016040519081016040528093929190818152602001838380828437600092019190915250613d7b92505050565b611a845760405162461bcd60e51b815260206004820152601260248201527f4c4f503a20626164207369676e61747572650000000000000000000000000000604482015260640161097a565b8a610100015115611a9a575060e08a0151611aa1565b5060c08a01515b60148b61022001515110611b3a57600080611acd8d610220015160148101805191516013190181529091565b91509150611adb8282613ee0565b60008581526005602052604090205415611b375760405162461bcd60e51b815260206004820152601860248201527f4c4f503a207265656e7472616e63792064657465637465640000000000000000604482015260640161097a565b50505b611b44565b600019015b6102008b01515115611ba557611b598b610f7d565b611ba55760405162461bcd60e51b815260206004820152601d60248201527f4c4f503a207072656469636174652072657475726e65642066616c7365000000604482015260640161097a565b871587151415611bf75760405162461bcd60e51b815260206004820181905260248201527f4c4f503a206f6e6c79206f6e6520616d6f756e742073686f756c642062652030604482015260640161097a565b87611d41576101008b0151879015611c975781881115611c15578197505b611c2e8c6101c001518d60e001518e60c001518b61419a565b9850611c3a888861596e565b611c44828b61596e565b1115611c925760405162461bcd60e51b815260206004820152601f60248201527f4c4f503a20546f6b656e73206c657373207468616e207468726573686f6c6400604482015260640161097a565b611d3b565b611cb08c6101e001518d60e001518e60c001518b61419a565b985081891115611cd957819850611cd68c6101c001518d60c001518e60e001518c61419a565b97505b611ce3888861596e565b611ced828b61596e565b1015611d3b5760405162461bcd60e51b815260206004820152601f60248201527f4c4f503a20546f6b656e73206c657373207468616e207468726573686f6c6400604482015260640161097a565b50611e82565b6101008b0151889015611df757611d678c6101e001518d60c001518e60e001518c61419a565b975081881115611d9057819750611d8d8c6101c001518d60e001518e60c001518b61419a565b98505b611d9a898861596e565b611da4828a61596e565b1015611df25760405162461bcd60e51b815260206004820152601f60248201527f4c4f503a20546f6b656e73206c657373207468616e207468726573686f6c6400604482015260640161097a565b611e80565b81891115611e03578198505b611e1c8c6101c001518d60c001518e60e001518c61419a565b9750611e28898861596e565b611e32828a61596e565b1115611e805760405162461bcd60e51b815260206004820152601f60248201527f4c4f503a20546f6b656e73206c657373207468616e207468726573686f6c6400604482015260640161097a565b505b600088118015611e925750600087115b611ede5760405162461bcd60e51b815260206004820152601860248201527f4c4f503a2063616e27742073776170203020616d6f756e740000000000000000604482015260640161097a565b8a610100015115611ef157869003611ef5565b8790035b6000838152600560209081526040808320600185810190915560068352928190208054909301909255815185815290810183905233917fb9ed0243fdf00f0545c63a0af8850c090d86bb46682baec4bf3c496814fe4f02910160405180910390a250600082815260076020818152604080842060608f0180516001600160a01b03908116875282855283872054898852958552815181168752828552838720958e019095558786526008808552838720825187168852808652848820548a895291865282519096168752858552838720908d0190553386529083528185208c905592909152822088905551611fed908c9085906108b3565b90506000611ffc8c85336108b3565b9050600061200d84604001516142b6565b60408581015190516323b872dd60e01b602082015233602482015230604482015260648101859052919250612054916084015b604051602081830303815290604052613ad0565b61206184604001516142b6565b61206b8383615aeb565b11156120b95760405162461bcd60e51b815260206004820152601660248201527f4c4f503a204d617267696e206e6f7420656e6f75676800000000000000000000604482015260640161097a565b6120c684604001516142b6565b604085810151865191516323b872dd60e01b60208201526001600160a01b0390921660248301523060448301526064820186905291925061210a9190608401612040565b61211784604001516142b6565b6121218483615aeb565b111561216f5760405162461bcd60e51b815260206004820152601660248201527f4c4f503a204d617267696e206e6f7420656e6f75676800000000000000000000604482015260640161097a565b50506002805460ff60a01b1916600160a01b179055509599949850939650505050505050565b8281146121e45760405162461bcd60e51b815260206004820152601860248201527f4c4f503a2061727261792073697a65206d69736d617463680000000000000000604482015260640161097a565b60008367ffffffffffffffff8111156121ff576121ff614f19565b6040519080825280601f01601f191660200182016040528015612229576020820181803683370190505b50905060005b8481101561237d5760008087878481811061224c5761224c615b03565b905060200201602081019061226191906152df565b6001600160a01b031686868581811061227c5761227c615b03565b905060200281019061228e9190615b19565b60405161229c929190615b60565b6000604051808303816000865af19150503d80600081146122d9576040519150601f19603f3d011682016040523d82523d6000602084013e6122de565b606091505b50915091508180156122f1575060008151115b1561230e578051602014801561230b575060208101516001145b91505b8161231d57600360fc1b61233f565b7f31000000000000000000000000000000000000000000000000000000000000005b84848151811061235157612351615b03565b60200101906001600160f81b031916908160001a9053505050808061237590615b70565b91505061222f565b508060405160200161238f9190615bb7565b60408051601f198184030181529082905262461bcd60e51b825261097a91600401615c28565b6001546001600160a01b031633146124095760405162461bcd60e51b81526020600482015260176024820152761313d40e8813db9b1e481bdddb995c88185b1b1bddd959604a1b604482015260640161097a565b600380546001600160801b03928316600160801b029216919091179055565b60008061247e836040518060400160405280600681526020017f50483a206c740000000000000000000000000000000000000000000000000000815250866001600160a01b03166138419092919063ffffffff16565b905080516020146124d15760405162461bcd60e51b815260206004820152601760248201527f50483a20696e76616c69642063616c6c20726573756c74000000000000000000604482015260640161097a565b84818060200190518101906124e6919061580b565b1095945050505050565b6001546001600160a01b031633146125445760405162461bcd60e51b81526020600482015260176024820152761313d40e8813db9b1e481bdddb995c88185b1b1bddd959604a1b604482015260640161097a565b6001600160a01b03919091166000908152600c6020526040902080546001600160801b0319166001600160801b03909216919091179055565b6001546001600160a01b031633146125d15760405162461bcd60e51b81526020600482015260176024820152761313d40e8813db9b1e481bdddb995c88185b1b1bddd959604a1b604482015260640161097a565b600380546001600160801b0319166001600160801b0392909216919091179055565b60008060148310156126475760405162461bcd60e51b815260206004820152601a60248201527f4c4f503a207065726d6974206c656e67746820746f6f206c6f77000000000000604482015260640161097a565b6000366000612656878761437f565b9250925092506126678383836143a8565b6126758d8d8d8d8d8d6116f4565b945094505050509850989650505050505050565b6001546001600160a01b031633146126dd5760405162461bcd60e51b81526020600482015260176024820152761313d40e8813db9b1e481bdddb995c88185b1b1bddd959604a1b604482015260640161097a565b6001600160a01b03919091166000908152600e6020526040902080546001600160801b0319166001600160801b03909216919091179055565b60008382146127675760405162461bcd60e51b815260206004820152601d60248201527f50483a20696e7075742061727261792073697a65206d69736d61746368000000604482015260640161097a565b60005b848110156128c557600061283c85858481811061278957612789615b03565b905060200281019061279b9190615b19565b8080601f0160208091040260200160405190810160405280939291908181526020018383808284376000920191909152505060408051808201909152601881527f50483a2027616e64272073756263616c6c206661696c65640000000000000000602082015291508a9050898681811061281757612817615b03565b905060200201602081019061282c91906152df565b6001600160a01b03169190613841565b9050805160201461288f5760405162461bcd60e51b815260206004820152601760248201527f50483a20696e76616c69642063616c6c20726573756c74000000000000000000604482015260640161097a565b808060200190518101906128a39190615c3b565b6128b2576000925050506128cb565b50806128bd81615b70565b91505061276a565b50600190505b949350505050565b6001546001600160a01b031633146129275760405162461bcd60e51b81526020600482015260176024820152761313d40e8813db9b1e481bdddb995c88185b1b1bddd959604a1b604482015260640161097a565b600480546001600160801b0319166001600160801b0392909216919091179055565b6001546001600160a01b0316331461299d5760405162461bcd60e51b81526020600482015260176024820152761313d40e8813db9b1e481bdddb995c88185b1b1bddd959604a1b604482015260640161097a565b6001600160a01b03919091166000908152600d6020526040902080546001600160801b0319166001600160801b03909216919091179055565b60008181526005602052604081205480612a325760405162461bcd60e51b815260206004820152601260248201527f4c4f503a20556e6b6e6f776e206f726465720000000000000000000000000000604482015260640161097a565b6000190192915050565b600080612a92836040518060400160405280601781526020017f41433a2061726269747261727953746174696343616c6c000000000000000000815250866001600160a01b03166138419092919063ffffffff16565b9050808060200190516020811015612aa957600080fd5b50519150505b92915050565b600080846001600160a01b031663feaf968c6040518163ffffffff1660e01b815260040160a060405180830381865afa158015612af6573d6000803e3d6000fd5b505050506040513d60a0811015612b0c57600080fd5b50602001519050600160ff1b8416158015907f7fffffffffffffffffffffffffffffffffffffffffffffffffffffffffffffff861690612b9b57633b9aca00612b5484613bfe565b612b5f90606461596e565b82612b73886801000000000000000061596e565b612b7d919061596e565b612b87919061598d565b612b91919061598d565b93505050506108ce565b633b9aca00680100000000000000008287612bb587613bfe565b612bc090606461596e565b612b73919061596e565b612bd46001611667565b565b60008111612c265760405162461bcd60e51b815260206004820152601060248201527f4c4f503a207a65726f20616d6f756e7400000000000000000000000000000000604482015260640161097a565b826101400151421115612c705760405162461bcd60e51b81526020600482015260126024820152711313d40e8813dc99195c881b585d1d5c995960721b604482015260640161097a565b6000612c7b84610e50565b6000818152600a602052604090205490915060ff1615612cdd5760405162461bcd60e51b815260206004820152601760248201527f4c4f503a204f726465722069732064656661756c746564000000000000000000604482015260640161097a565b60008181526009602090815260408083206001600160a01b0387168452909152902054612d4c5760405162461bcd60e51b815260206004820152601760248201527f4c4f503a204e6f206d617267696e2070726f7669646564000000000000000000604482015260640161097a565b60008181526009602090815260408083206001600160a01b038716845290915281208054849290612d7e908490615aeb565b925050819055506000612d9485604001516142b6565b60408681015190516323b872dd60e01b602082015233602482015230604482015260648101869052919250612dcb91608401612040565b612dd885604001516142b6565b612de28483615aeb565b1115612e305760405162461bcd60e51b815260206004820152601660248201527f4c4f503a204d617267696e206e6f7420656e6f75676800000000000000000000604482015260640161097a565b5050505050565b600254600090600160a01b900460ff16612e875760405162461bcd60e51b81526020600482015260116024820152704c4f503a204c6f636b656420737461746560781b604482015260640161097a565b6002805460ff60a01b191690556000612e9f84610e50565b9050836101400151421180612ec257506000818152600a602052604090205460ff165b612f0e5760405162461bcd60e51b815260206004820152601a60248201527f4c4f503a204f7264657220796574206e6f74206d617475726564000000000000604482015260640161097a565b60008181526007602090815260408083206001600160a01b0387168085529083528184205485855260088452828520828652845282852054868652600985528386209286529190935292205490919080612faa5760405162461bcd60e51b815260206004820152601760248201527f4c4f503a204e6f206d617267696e2070726f7669646564000000000000000000604482015260640161097a565b6000612fca886020015189604001518a61012001518b6101400151611027565b509050836000612fda8386613934565b612fe590606461596e565b6101608b01516000898152600a6020526040812054929350909160ff161561303f57600089815260066020908152604080832054600b90925282205461302b919061598d565b90506130378188615aeb565b915050613154565b60008c6101000151801561306857508c606001516001600160a01b03168c6001600160a01b0316145b15613071575060015b8c610100015115801561309a57508c606001516001600160a01b03168c6001600160a01b031614155b156130a3575060015b6040517fefe540590000000000000000000000000000000000000000000000000000000081526004810186905260248101859052604481018890528115156064820152600f84900b608482015273__$caed8c4ffcf81826f6594109f9ec2a0e3a$__9063efe540599060a401602060405180830381865af415801561312c573d6000803e3d6000fd5b505050506040513d601f19601f82011682018060405250810190613150919061580b565b9150505b60008981526007602090815260408083206001600160a01b038f168085529083528184208490558c84526008835281842081855283528184208490558c8452600983528184209084529091528120556040808d015190516001600160a01b038d166024820152604481018390526131d7919063a9059cbb60e01b90606401610d6a565b985050505050505050506002805460ff60a01b1916600160a01b17905592915050565b600083821461324b5760405162461bcd60e51b815260206004820152601d60248201527f50483a20696e7075742061727261792073697a65206d69736d61746368000000604482015260640161097a565b60005b848110156133855760006132fb85858481811061326d5761326d615b03565b905060200281019061327f9190615b19565b8080601f0160208091040260200160405190810160405280939291908181526020018383808284376000920191909152505060408051808201909152601781527f50483a20276f72272073756263616c6c206661696c6564000000000000000000602082015291508a9050898681811061281757612817615b03565b9050805160201461334e5760405162461bcd60e51b815260206004820152601760248201527f50483a20696e76616c69642063616c6c20726573756c74000000000000000000604482015260640161097a565b808060200190518101906133629190615c3b565b15613372576001925050506128cb565b508061337d81615b70565b91505061324e565b50600095945050505050565b6000826001816133a1878661596e565b6133ab9190615aeb565b610f73919061583a565b6001546001600160a01b031633146134095760405162461bcd60e51b81526020600482015260176024820152761313d40e8813db9b1e481bdddb995c88185b1b1bddd959604a1b604482015260640161097a565b6001600160a01b03919091166000908152600f6020526040902080546001600160801b0319166001600160801b03909216919091179055565b600042866101400151101561348e5760405162461bcd60e51b81526020600482015260126024820152711313d40e8813dc99195c881b585d1d5c995960721b604482015260640161097a565b6000858152600a602052604090205460ff16156134ed5760405162461bcd60e51b815260206004820152601460248201527f4c4f503a204f726465722064656661756c746564000000000000000000000000604482015260640161097a565b60008661010001518015613516575086606001516001600160a01b0316856001600160a01b0316145b1561351f575060015b866101000151158015613548575086606001516001600160a01b0316856001600160a01b031614155b15613551575060015b600060405180610100016040528088815260200189610120015181526020018961014001518152602001600a60008a815260200190815260200160002060009054906101000a900460ff1615158152602001896101600151600f0b8152602001600760008a81526020019081526020016000206000896001600160a01b03166001600160a01b03168152602001908152602001600020548152602001600860008a81526020019081526020016000206000896001600160a01b03166001600160a01b03168152602001908152602001600020548152602001831515815250905060006040518060e001604052808a602001516001600160a01b031681526020018a604001516001600160a01b03168152602001600c60008c602001516001600160a01b03166001600160a01b0316815260200190815260200160002060009054906101000a9004600f0b600f0b8152602001600d60008c602001516001600160a01b03166001600160a01b0316815260200190815260200160002060009054906101000a9004600f0b600f0b8152602001600e60008c602001516001600160a01b03166001600160a01b0316815260200190815260200160002060009054906101000a9004600f0b600f0b8152602001600f60008c602001516001600160a01b03166001600160a01b0316815260200190815260200160002060009054906101000a9004600f0b600f0b8152602001601060008c602001516001600160a01b03166001600160a01b0316815260200190815260200160002060009054906101000a9004600f0b600f0b815250905073__$caed8c4ffcf81826f6594109f9ec2a0e3a$__63cc160f76600260009054906101000a90046001600160a01b031684848a8a6040518663ffffffff1660e01b81526004016137f3959493929190615c58565b602060405180830381865af4158015613810573d6000803e3d6000fd5b505050506040513d601f19601f82011682018060405250810190613834919061580b565b9998505050505050505050565b60606001600160a01b0384163b6138bf5760405162461bcd60e51b8152602060048201526024808201527f416464726573733a207374617469632063616c6c20746f206e6f6e2d636f6e7460448201527f7261637400000000000000000000000000000000000000000000000000000000606482015260840161097a565b600080856001600160a01b0316856040516138da9190615d4b565b600060405180830381855afa9150503d8060008114613915576040519150601f19603f3d011682016040523d82523d6000602084013e61391a565b606091505b509150915061392a828286614594565b9695505050505050565b60008161394357506000612aaf565b600083600f0b12156139975760405162461bcd60e51b815260206004820152600e60248201527f4c4f503a20556e646572666c6f77000000000000000000000000000000000000604482015260640161097a565b600f83900b6001600160801b038316810260401c90608084901c0277ffffffffffffffffffffffffffffffffffffffffffffffff811115613a0a5760405162461bcd60e51b815260206004820152600d60248201526c4c4f503a204f766572666c6f7760981b604482015260640161097a565b60401b8119811115613a4e5760405162461bcd60e51b815260206004820152600d60248201526c4c4f503a204f766572666c6f7760981b604482015260640161097a565b019392505050565b5050565b600082815260076020908152604080832060608701516001600160a01b0316845290915281208054839290613a9090849061583a565b9091555050505050565b600082815260086020908152604080832060608701516001600160a01b0316845290915281208054839290613a9090849061583a565b6000613b25826040518060400160405280601681526020017f4c4f503a2061737365742e63616c6c206661696c656400000000000000000000815250856001600160a01b03166145cd9092919063ffffffff16565b805190915015613b905780516020148015613b44575060208101516001145b613b905760405162461bcd60e51b815260206004820152601a60248201527f4c4f503a2061737365742e63616c6c2062616420726573756c74000000000000604482015260640161097a565b505050565b6000612aaf613ba2613c54565b836040517f19010000000000000000000000000000000000000000000000000000000000006020820152602281018390526042810182905260009060620160405160208183030381529060405280519060200120905092915050565b600080821215613c505760405162461bcd60e51b815260206004820181905260248201527f53616665436173743a2076616c7565206d75737420626520706f736974697665604482015260640161097a565b5090565b6000306001600160a01b037f000000000000000000000000000000000000000000000000000000000000000016148015613cad57507f000000000000000000000000000000000000000000000000000000000000000046145b15613cd757507f000000000000000000000000000000000000000000000000000000000000000090565b50604080517f00000000000000000000000000000000000000000000000000000000000000006020808301919091527f0000000000000000000000000000000000000000000000000000000000000000828401527f000000000000000000000000000000000000000000000000000000000000000060608301524660808301523060a0808401919091528351808403909101815260c0909201909252805191012090565b6000806000613d8a85856145dc565b90925090506000816004811115613da357613da3615d67565b148015613dc15750856001600160a01b0316826001600160a01b0316145b15613dd1576001925050506108ce565b600080876001600160a01b0316631626ba7e60e01b8888604051602401613df9929190615d7d565b60408051601f198184030181529181526020820180516001600160e01b03166001600160e01b0319909416939093179092529051613e379190615d4b565b600060405180830381855afa9150503d8060008114613e72576040519150601f19603f3d011682016040523d82523d6000602084013e613e77565b606091505b5091509150818015613e8a575080516020145b8015613ed4575080517f1626ba7e0000000000000000000000000000000000000000000000000000000090613ec89083016020908101908401615d96565b6001600160e01b031916145b98975050505050505050565b805115613a565760006060825160e0141561402057836001600160a01b031663d505accf60e01b8460405160200180836001600160e01b031916815260040182805190602001908083835b60208310613f4a5780518252601f199092019160209182019101613f2b565b6001836020036101000a038019825116818451168082178552505050505050905001925050506040516020818303038152906040526040518082805190602001908083835b60208310613fae5780518252601f199092019160209182019101613f8f565b6001836020036101000a0380198251168184511680821785525050505050509050019150506000604051808303816000865af19150503d8060008114614010576040519150601f19603f3d011682016040523d82523d6000602084013e614015565b606091505b5090925090506140cc565b8251610100141561407f57836001600160a01b0316638fcbaf0c60e01b8460405160200180836001600160e01b0319168152600401828051906020019080838360208310613f4a5780518252601f199092019160209182019101613f2b565b6040805162461bcd60e51b815260206004820152601360248201527f57726f6e67207065726d6974206c656e67746800000000000000000000000000604482015290519081900360640190fd5b8161419457614110816040518060400160405280600f81526020017f5065726d6974206661696c65643a20000000000000000000000000000000000081525061464c565b60405162461bcd60e51b81526004018080602001828103825283818151815260200191508051906020019080838360005b83811015614159578181015183820152602001614141565b50505050905090810190601f1680156141865780820380516001836020036101000a031916815260200191505b509250505060405180910390fd5b50505050565b60008451600014156141fc578382146141f55760405162461bcd60e51b815260206004820152601160248201527f4c4f503a2077726f6e6720616d6f756e74000000000000000000000000000000604482015260640161097a565b50816128cb565b60006142588684604051602001614214929190615dc0565b60408051601f19818403018152828201909152601a82527f4c4f503a20676574416d6f756e742063616c6c206661696c656400000000000060208301523091613841565b905080516020146142ab5760405162461bcd60e51b815260206004820152601d60248201527f4c4f503a20696e76616c696420676574416d6f756e742072657475726e000000604482015260640161097a565b6020015190506128cb565b60408051306024808301919091528251808303909101815260449091019091526020810180516001600160e01b03167f70a08231000000000000000000000000000000000000000000000000000000001790526000908190614322906001600160a01b03851690614a08565b905080516020146143755760405162461bcd60e51b815260206004820152601860248201527f4c4f503a20696e76616c69642063616c6c20726573756c740000000000000000604482015260640161097a565b60208101516108ce565b60003681843560601c8282614397876014818b615de2565b939650945091925050509250925092565b8015613b90576000606060e08314156144ba576040517fd505accf00000000000000000000000000000000000000000000000000000000602082018181526001600160a01b03881692879187916024018383808284378083019250505093505050506040516020818303038152906040526040518082805190602001908083835b602083106144485780518252601f199092019160209182019101614429565b6001836020036101000a0380198251168184511680821785525050505050509050019150506000604051808303816000865af19150503d80600081146144aa576040519150601f19603f3d011682016040523d82523d6000602084013e6144af565b606091505b509092509050614550565b61010083141561407f576040517f8fcbaf0c00000000000000000000000000000000000000000000000000000000602082018181526001600160a01b0388169287918791602401838380828437808301925050509350505050604051602081830303815290604052604051808280519060200190808383602083106144485780518252601f199092019160209182019101614429565b81612e3057614110816040518060400160405280600f81526020017f5065726d6974206661696c65643a20000000000000000000000000000000000081525061464c565b606083156145a35750816108ce565b8251156145b35782518084602001fd5b8160405162461bcd60e51b815260040161097a9190615c28565b60606108cb8484600085614a2d565b6000808251604114156146135760208301516040840151606085015160001a61460787828585614b75565b94509450505050614645565b82516040141561463d5760208301516040840151614632868383614c5f565b935093505050614645565b506000905060025b9250929050565b606060048351106149125760208301516001600160e01b0319811662461bcd60e51b14801561467d57506044845110155b156147ee5760248481015180860182018051919290919061469f908490615aeb565b6146a99190615aeb565b865110156146fe576040805162461bcd60e51b815260206004820152601560248201527f496e76616c69642072657665727420726561736f6e0000000000000000000000604482015290519081900360640190fd5b84816040516020018083805190602001908083835b602083106147325780518252601f199092019160209182019101614713565b51815160209384036101000a60001901801990921691161790527f4572726f72280000000000000000000000000000000000000000000000000000919093019081528451600690910192850191508083835b602083106147a35780518252601f199092019160209182019101614784565b6001836020036101000a03801982511681845116808217855250505050505090500180602960f81b815250600101925050506040516020818303038152906040529350505050612aaf565b6001600160e01b03198116634e487b7160e01b14801561480f575083516024145b156149105760248401518361482382614cb1565b6040516020018083805190602001908083835b602083106148555780518252601f199092019160209182019101614836565b51815160209384036101000a60001901801990921691161790527f50616e6963280000000000000000000000000000000000000000000000000000919093019081528451600690910192850191508083835b602083106148c65780518252601f1990920191602091820191016148a7565b6001836020036101000a03801982511681845116808217855250505050505090500180602960f81b8152506001019250505060405160208183030381529060405292505050612aaf565b505b8161491c84614cd7565b6040516020018083805190602001908083835b6020831061494e5780518252601f19909201916020918201910161492f565b51815160209384036101000a60001901801990921691161790527f556e6b6e6f776e28000000000000000000000000000000000000000000000000919093019081528451600890910192850191508083835b602083106149bf5780518252601f1990920191602091820191016149a0565b6001836020036101000a03801982511681845116808217855250505050505090500180602960f81b81525060010192505050604051602081830303815290604052905092915050565b60606108ce8383604051806060016040528060258152602001615e0d60259139613841565b606082471015614aa55760405162461bcd60e51b815260206004820152602660248201527f416464726573733a20696e73756666696369656e742062616c616e636520666f60448201527f722063616c6c0000000000000000000000000000000000000000000000000000606482015260840161097a565b6001600160a01b0385163b614afc5760405162461bcd60e51b815260206004820152601d60248201527f416464726573733a2063616c6c20746f206e6f6e2d636f6e7472616374000000604482015260640161097a565b600080866001600160a01b03168587604051614b189190615d4b565b60006040518083038185875af1925050503d8060008114614b55576040519150601f19603f3d011682016040523d82523d6000602084013e614b5a565b606091505b5091509150614b6a828286614594565b979650505050505050565b6000807f7fffffffffffffffffffffffffffffff5d576e7357a4501ddfe92f46681b20a0831115614bac57506000905060036110e7565b8460ff16601b14158015614bc457508460ff16601c14155b15614bd557506000905060046110e7565b6040805160008082526020820180845289905260ff881692820192909252606081018690526080810185905260019060a0016020604051602081039080840390855afa158015614c29573d6000803e3d6000fd5b5050604051601f1901519150506001600160a01b038116614c52576000600192509250506110e7565b9660009650945050505050565b6000807f7fffffffffffffffffffffffffffffffffffffffffffffffffffffffffffffff831681614c9560ff86901c601b615aeb565b9050614ca387828885614b75565b935093505050935093915050565b6060612aaf82604051602001808281526020019150506040516020818303038152906040525b80516060907f303132333435363738396162636465660000000000000000000000000000000090600090614d0c90600261596e565b614d17906002615aeb565b67ffffffffffffffff811115614d2f57614d2f614f19565b6040519080825280601f01601f191660200182016040528015614d59576020820181803683370190505b509050600360fc1b81600081518110614d7457614d74615b03565b60200101906001600160f81b031916908160001a9053507f780000000000000000000000000000000000000000000000000000000000000081600181518110614dbf57614dbf615b03565b60200101906001600160f81b031916908160001a90535060005b8451811015614ef857826004868381518110614df757614df7615b03565b01602001517fff0000000000000000000000000000000000000000000000000000000000000016901c60f81c60108110614e3357614e33615b03565b1a60f81b82614e4383600261596e565b614e4e906002615aeb565b81518110614e5e57614e5e615b03565b60200101906001600160f81b031916908160001a90535082858281518110614e8857614e88615b03565b60209101015160f81c600f1660108110614ea457614ea4615b03565b1a60f81b82614eb483600261596e565b614ebf906003615aeb565b81518110614ecf57614ecf615b03565b60200101906001600160f81b031916908160001a90535080614ef081615b70565b915050614dd9565b509392505050565b600060208284031215614f1257600080fd5b5035919050565b634e487b7160e01b600052604160045260246000fd5b604051610260810167ffffffffffffffff81118282101715614f5357614f53614f19565b60405290565b6001600160a01b0381168114614f6e57600080fd5b50565b8035614f7c81614f59565b919050565b8015158114614f6e57600080fd5b8035614f7c81614f81565b80600f0b8114614f6e57600080fd5b8035614f7c81614f9a565b600082601f830112614fc557600080fd5b813567ffffffffffffffff80821115614fe057614fe0614f19565b604051601f8301601f19908116603f0116810190828211818310171561500857615008614f19565b8160405283815286602085880101111561502157600080fd5b836020870160208301376000602085830101528094505050505092915050565b6000610260828403121561505457600080fd5b61505c614f2f565b90508135815261506e60208301614f71565b602082015261507f60408301614f71565b604082015261509060608301614f71565b60608201526150a160808301614f71565b60808201526150b260a08301614f71565b60a082015260c082013560c082015260e082013560e08201526101006150d9818401614f8f565b9082015261012082810135908201526101408083013590820152610160615101818401614fa9565b908201526101808281013567ffffffffffffffff8082111561512257600080fd5b61512e86838701614fb4565b838501526101a092508285013591508082111561514a57600080fd5b61515686838701614fb4565b838501526101c092508285013591508082111561517257600080fd5b61517e86838701614fb4565b838501526101e092508285013591508082111561519a57600080fd5b6151a686838701614fb4565b838501526102009250828501359150808211156151c257600080fd5b6151ce86838701614fb4565b838501526102209250828501359150808211156151ea57600080fd5b6151f686838701614fb4565b8385015261024092508285013591508082111561521257600080fd5b5061521f85828601614fb4565b82840152505092915050565b60008060006060848603121561524057600080fd5b833567ffffffffffffffff81111561525757600080fd5b61526386828701615041565b93505060208401359150604084013561527b81614f59565b809150509250925092565b60008060006060848603121561529b57600080fd5b8335925060208401356152ad81614f59565b9150604084013567ffffffffffffffff8111156152c957600080fd5b6152d586828701614fb4565b9150509250925092565b6000602082840312156152f157600080fd5b81356108ce81614f59565b6000806040838503121561530f57600080fd5b823567ffffffffffffffff81111561532657600080fd5b61533285828601615041565b925050602083013561534381614f59565b809150509250929050565b60006020828403121561536057600080fd5b813567ffffffffffffffff81111561537757600080fd5b6128cb84828501615041565b60008060006060848603121561539857600080fd5b505081359360208301359350604090920135919050565b600080600080608085870312156153c557600080fd5b84356153d081614f59565b935060208501356153e081614f59565b93969395505050506040820135916060013590565b600080600080600060a0868803121561540d57600080fd5b853561541881614f59565b9450602086013561542881614f59565b94979496505050506040830135926060810135926080909101359150565b6000806040838503121561545957600080fd5b82359150602083013561534381614f59565b6000806040838503121561547e57600080fd5b823561548981614f59565b9150602083013561534381614f9a565b6000602082840312156154ab57600080fd5b813560ff811681146108ce57600080fd5b60008083601f8401126154ce57600080fd5b50813567ffffffffffffffff8111156154e657600080fd5b60208301915083602082850101111561464557600080fd5b60008060008060008060a0878903121561551757600080fd5b863567ffffffffffffffff8082111561552f57600080fd5b61553b8a838b01615041565b9750602089013591508082111561555157600080fd5b5061555e89828a016154bc565b979a90995096976040810135976060820135975060809091013595509350505050565b60008083601f84011261559357600080fd5b50813567ffffffffffffffff8111156155ab57600080fd5b6020830191508360208260051b850101111561464557600080fd5b600080600080604085870312156155dc57600080fd5b843567ffffffffffffffff808211156155f457600080fd5b61560088838901615581565b9096509450602087013591508082111561561957600080fd5b5061562687828801615581565b95989497509550505050565b60006020828403121561564457600080fd5b81356108ce81614f9a565b60008060008060008060008060c0898b03121561566b57600080fd5b883567ffffffffffffffff8082111561568357600080fd5b61568f8c838d01615041565b995060208b01359150808211156156a557600080fd5b6156b18c838d016154bc565b909950975060408b0135965060608b0135955060808b0135945060a08b01359150808211156156df57600080fd5b506156ec8b828c016154bc565b999c989b5096995094979396929594505050565b6000806040838503121561571357600080fd5b823561571e81614f59565b9150602083013567ffffffffffffffff81111561573a57600080fd5b61574685828601614fb4565b9150509250929050565b60008060006060848603121561576557600080fd5b833561577081614f59565b95602085013595506040909401359392505050565b6000806040838503121561579857600080fd5b82356157a381614f59565b946020939093013593505050565b6000806000606084860312156157c657600080fd5b833567ffffffffffffffff8111156157dd57600080fd5b6157e986828701615041565b93505060208401356157fa81614f59565b929592945050506040919091013590565b60006020828403121561581d57600080fd5b5051919050565b634e487b7160e01b600052601160045260246000fd5b60008282101561584c5761584c615824565b500390565b6000610280820190508a82528951602083015260208a015161587e60408401826001600160a01b03169052565b5060408a01516001600160a01b03811660608401525060608a01516001600160a01b03811660808401525060808a01516001600160a01b03811660a08401525060a08a01516001600160a01b03811660c08401525060c08a015160e083015260e08a01516101008181850152808c01519150506101206159018185018315159052565b8b0151610140848101919091528b0151610160808501919091528b01519050615930610180840182600f0b9052565b506101a08201989098526101c08101969096526101e08601949094526102008501929092526102208401526102408301526102609091015292915050565b600081600019048311821515161561598857615988615824565b500290565b6000826159aa57634e487b7160e01b600052601260045260246000fd5b500490565b600080604083850312156159c257600080fd5b82516159cd81614f9a565b602084015190925061534381614f9a565b600181815b80851115615a195781600019048211156159ff576159ff615824565b80851615615a0c57918102915b93841c93908002906159e3565b509250929050565b600082615a3057506001612aaf565b81615a3d57506000612aaf565b8160018114615a535760028114615a5d57615a79565b6001915050612aaf565b60ff841115615a6e57615a6e615824565b50506001821b612aaf565b5060208310610133831016604e8410600b8410161715615a9c575081810a612aaf565b615aa683836159de565b8060001904821115615aba57615aba615824565b029392505050565b60006108ce8383615a21565b6000600160ff1b821415615ae457615ae4615824565b5060000390565b60008219821115615afe57615afe615824565b500190565b634e487b7160e01b600052603260045260246000fd5b6000808335601e19843603018112615b3057600080fd5b83018035915067ffffffffffffffff821115615b4b57600080fd5b60200191503681900382131561464557600080fd5b8183823760009101908152919050565b6000600019821415615b8457615b84615824565b5060010190565b60005b83811015615ba6578181015183820152602001615b8e565b838111156141945750506000910152565b7f43414c4c5f524553554c54535f00000000000000000000000000000000000000815260008251615bef81600d850160208701615b8b565b91909101600d0192915050565b60008151808452615c14816020860160208601615b8b565b601f01601f19169290920160200192915050565b6020815260006108ce6020830184615bfc565b600060208284031215615c4d57600080fd5b81516108ce81614f81565b6000610240820190506001600160a01b03871682528551602083015260208601516040830152604086015160608301526060860151151560808301526080860151600f0b60a083015260a086015160c083015260c086015160e083015260e08601511515610100830152615d2b6101208301866001600160a01b03808251168352806020830151166020840152506040810151600f0b60408301526060810151600f0b60608301526080810151600f0b608083015260a0810151600f0b60a083015260c0810151600f0b60c08301525050565b615d3b610200830185600f0b9052565b61392a610220830184600f0b9052565b60008251615d5d818460208701615b8b565b9190910192915050565b634e487b7160e01b600052602160045260246000fd5b8281526040602082015260006108cb6040830184615bfc565b600060208284031215615da857600080fd5b81516001600160e01b0319811681146108ce57600080fd5b60008351615dd2818460208801615b8b565b9190910191825250602001919050565b60008085851115615df257600080fd5b83861115615dff57600080fd5b505082019391909203915056fe416464726573733a206c6f772d6c6576656c207374617469632063616c6c206661696c6564a2646970667358221220ab0d4511637a7ca57f08a99eb4e7abb130fc9cc9ad3fe177d9ba846a766dd5cf64736f6c634300080b0033",
  "libraries": {
    "MarginLib": "0x6ee892B6DA8de66C83Ad69DD203050CF14ebAfeb"
  },
  "devdoc": {
    "kind": "dev",
    "methods": {
      "and(address[],bytes[])": {
        "returns": {
          "_0": "Result True if calls to all targets returned True. Otherwise, false"
        }
      },
      "arbitraryStaticCall(address,bytes)": {
        "returns": {
          "_0": "Result Bytes transmuted to uint256"
        }
      },
      "doublePrice(address,address,uint256,int256,uint256)": {
        "returns": {
          "_0": "Result Token A relative price times amount"
        }
      },
      "eq(uint256,address,bytes)": {
        "params": {
          "value": "Value to test"
        },
        "returns": {
          "_0": "Result True if call to target returns the same value as `value`. Otherwise, false"
        }
      },
      "fillOrder((uint256,address,address,address,address,address,uint256,uint256,bool,uint256,uint256,int128,bytes,bytes,bytes,bytes,bytes,bytes,bytes),bytes,uint256,uint256,uint256)": {
        "params": {
          "fixedTokens": "Fixed Tokens",
          "order": "Order quote to fill",
          "signature": "Signature to confirm quote ownership",
          "thresholdTokens": "Specifies maximum allowed takingAmount when takingAmount is zero, otherwise specifies minimum allowed makingAmount",
          "variableTokens": "Variable Tokens"
        }
      },
      "fillOrderTo((uint256,address,address,address,address,address,uint256,uint256,bool,uint256,uint256,int128,bytes,bytes,bytes,bytes,bytes,bytes,bytes),bytes,uint256,uint256,uint256)": {
        "params": {
          "fixedTokens": "Fixed Tokens",
          "order": "Order quote to fill",
          "signature": "Signature to confirm quote ownership",
          "thresholdTokens": "Specifies maximum allowed takingAmount when takingAmount is zero, otherwise specifies minimum allowed makingAmount",
          "variableTokens": "Variable Tokens"
        }
      },
      "fillOrderToWithPermit((uint256,address,address,address,address,address,uint256,uint256,bool,uint256,uint256,int128,bytes,bytes,bytes,bytes,bytes,bytes,bytes),bytes,uint256,uint256,uint256,bytes)": {
        "details": "See tests for examples",
        "params": {
          "fixedTokens": "Fixed Tokens",
          "order": "Order quote to fill",
          "permit": "Should consist of abiencoded token address and encoded `IERC20Permit.permit` call.",
          "signature": "Signature to confirm quote ownership",
          "thresholdTokens": "Specifies maximum allowed takingAmount when takingAmount is zero, otherwise specifies minimum allowed makingAmount",
          "variableTokens": "Variable Tokens"
        }
      },
      "getMakerAmount(uint256,uint256,uint256)": {
        "returns": {
          "_0": "Result Ceiled maker amount"
        }
      },
      "getTakerAmount(uint256,uint256,uint256)": {
        "returns": {
          "_0": "Result Floored taker amount"
        }
      },
      "gt(uint256,address,bytes)": {
        "params": {
          "value": "Value to test"
        },
        "returns": {
          "_0": "Result True if call to target returns value which is bigger than `value`. Otherwise, false"
        }
      },
      "lt(uint256,address,bytes)": {
        "params": {
          "value": "Value to test"
        },
        "returns": {
          "_0": "Result True if call to target returns value which is lower than `value`. Otherwise, false"
        }
      },
      "nonceEquals(address,uint256)": {
        "returns": {
          "_0": "Result True if `makerAddress` has specified nonce. Otherwise, false"
        }
      },
      "or(address[],bytes[])": {
        "returns": {
          "_0": "Result True if call to any target returned True. Otherwise, false"
        }
      },
      "remainingRaw(bytes32)": {
        "returns": {
          "_0": "Result Unfilled amount of order plus one if order exists. Otherwise 0"
        }
      },
      "simulateCalls(address[],bytes[])": {
        "params": {
          "data": "Array of data that will be passed to each call",
          "targets": "Array of addresses that will be called"
        }
      },
      "singlePrice(address,uint256,uint256)": {
        "params": {
          "inverseAndSpread": "concatenated inverse flag and spread. Lowest 254 bits specify spread amount. Spread is scaled by 1e9, i.e. 101% = 1.01e9, 99% = 0.99e9. Highest bit is set when oracle price should be inverted, e.g. for DAI-ETH oracle, inverse=false means that we request DAI price in ETH and inverse=true means that we request ETH price in DAI"
        },
        "returns": {
          "_0": "Amount * spread * oracle price"
        }
      },
      "timestampBelow(uint256)": {
        "returns": {
          "_0": "Result True if current block timestamp is lower than `time`. Otherwise, false"
        }
      }
    },
    "title": "1inch Limit Order Protocol v2",
    "version": 1
  },
  "userdoc": {
    "events": {
      "OrderCanceled(address,bytes32,uint256)": {
        "notice": "Emitted when order gets cancelled"
      },
      "OrderFilled(address,bytes32,uint256)": {
        "notice": "Emitted every time order gets filled, including partial fills"
      }
    },
    "kind": "user",
    "methods": {
      "advanceNonce(uint8)": {
        "notice": "Advances nonce by specified amount"
      },
      "and(address[],bytes[])": {
        "notice": "Calls every target with corresponding data"
      },
      "arbitraryStaticCall(address,bytes)": {
        "notice": "Performs an arbitrary call to target with data"
      },
      "cancelOrder((uint256,address,address,address,address,address,uint256,uint256,bool,uint256,uint256,int128,bytes,bytes,bytes,bytes,bytes,bytes,bytes))": {
        "notice": "Cancels order by setting remaining amount to zero"
      },
      "checkPredicate((uint256,address,address,address,address,address,uint256,uint256,bool,uint256,uint256,int128,bytes,bytes,bytes,bytes,bytes,bytes,bytes))": {
        "notice": "Checks order predicate"
      },
      "doublePrice(address,address,uint256,int256,uint256)": {
        "notice": "Calculates price of token A relative to token B. Note that order is important"
      },
      "eq(uint256,address,bytes)": {
        "notice": "Calls target with specified data and tests if it's equal to the value"
      },
      "fillOrder((uint256,address,address,address,address,address,uint256,uint256,bool,uint256,uint256,int128,bytes,bytes,bytes,bytes,bytes,bytes,bytes),bytes,uint256,uint256,uint256)": {
        "notice": "Fills an order. If one doesn't exist (first fill) it will be created using order.makerAssetData"
      },
      "fillOrderTo((uint256,address,address,address,address,address,uint256,uint256,bool,uint256,uint256,int128,bytes,bytes,bytes,bytes,bytes,bytes,bytes),bytes,uint256,uint256,uint256)": {
        "notice": "Same as `fillOrder` but allows to specify funds destination instead of `msg.sender`"
      },
      "fillOrderToWithPermit((uint256,address,address,address,address,address,uint256,uint256,bool,uint256,uint256,int128,bytes,bytes,bytes,bytes,bytes,bytes,bytes),bytes,uint256,uint256,uint256,bytes)": {
        "notice": "Same as `fillOrder` but calls permit first, allowing to approve token spending and make a swap in one transaction. Also allows to specify funds destination instead of `msg.sender`"
      },
      "getMakerAmount(uint256,uint256,uint256)": {
        "notice": "Calculates maker amount"
      },
      "getTakerAmount(uint256,uint256,uint256)": {
        "notice": "Calculates taker amount"
      },
      "gt(uint256,address,bytes)": {
        "notice": "Calls target with specified data and tests if it's bigger than value"
      },
      "increaseNonce()": {
        "notice": "Advances nonce by one"
      },
      "lt(uint256,address,bytes)": {
        "notice": "Calls target with specified data and tests if it's lower than value"
      },
      "nonceEquals(address,uint256)": {
        "notice": "Checks if `makerAddress` has specified `makerNonce`"
      },
      "or(address[],bytes[])": {
        "notice": "Calls every target with corresponding data"
      },
      "remaining(bytes32)": {
        "notice": "Returns unfilled amount for order. Throws if order does not exist"
      },
      "remainingRaw(bytes32)": {
        "notice": "Returns unfilled amount for order"
      },
      "simulateCalls(address[],bytes[])": {
        "notice": "Calls every target with corresponding data. Then reverts with CALL_RESULTS_0101011 where zeroes and ones denote failure or success of the corresponding call"
      },
      "singlePrice(address,uint256,uint256)": {
        "notice": "Calculates price of token relative to oracle unit (ETH or USD)"
      },
      "timestampBelow(uint256)": {
        "notice": "Checks passed time against block timestamp"
      }
    },
    "version": 1
  },
  "storageLayout": {
    "storage": [
      {
        "astId": 5842,
        "contract": "contracts/LimitOrderProtocol.sol:LimitOrderProtocol",
        "label": "nonce",
        "offset": 0,
        "slot": "0",
        "type": "t_mapping(t_address,t_uint256)"
      },
      {
        "astId": 3145,
        "contract": "contracts/LimitOrderProtocol.sol:LimitOrderProtocol",
        "label": "owner",
        "offset": 0,
        "slot": "1",
        "type": "t_address"
      },
      {
        "astId": 3148,
        "contract": "contracts/LimitOrderProtocol.sol:LimitOrderProtocol",
        "label": "_oracle",
        "offset": 0,
        "slot": "2",
        "type": "t_contract(OracleMock)9444"
      },
      {
        "astId": 3151,
        "contract": "contracts/LimitOrderProtocol.sol:LimitOrderProtocol",
        "label": "_unlocked",
        "offset": 20,
        "slot": "2",
        "type": "t_bool"
      },
      {
        "astId": 3154,
        "contract": "contracts/LimitOrderProtocol.sol:LimitOrderProtocol",
        "label": "liquidatorMargin",
        "offset": 0,
        "slot": "3",
        "type": "t_int128"
      },
      {
        "astId": 3157,
        "contract": "contracts/LimitOrderProtocol.sol:LimitOrderProtocol",
        "label": "oppositePartyMargin",
        "offset": 16,
        "slot": "3",
        "type": "t_int128"
      },
      {
        "astId": 3160,
        "contract": "contracts/LimitOrderProtocol.sol:LimitOrderProtocol",
        "label": "oppositePartyMarginNoLiquidator",
        "offset": 0,
        "slot": "4",
        "type": "t_int128"
      },
      {
        "astId": 3176,
        "contract": "contracts/LimitOrderProtocol.sol:LimitOrderProtocol",
        "label": "_remaining",
        "offset": 0,
        "slot": "5",
        "type": "t_mapping(t_bytes32,t_uint256)"
      },
      {
        "astId": 3180,
        "contract": "contracts/LimitOrderProtocol.sol:LimitOrderProtocol",
        "label": "_orderNumTakers",
        "offset": 0,
        "slot": "6",
        "type": "t_mapping(t_bytes32,t_uint256)"
      },
      {
        "astId": 3186,
        "contract": "contracts/LimitOrderProtocol.sol:LimitOrderProtocol",
        "label": "orderParticipantFixedTokens",
        "offset": 0,
        "slot": "7",
        "type": "t_mapping(t_bytes32,t_mapping(t_address,t_uint256))"
      },
      {
        "astId": 3192,
        "contract": "contracts/LimitOrderProtocol.sol:LimitOrderProtocol",
        "label": "orderParticipantVariableTokens",
        "offset": 0,
        "slot": "8",
        "type": "t_mapping(t_bytes32,t_mapping(t_address,t_uint256))"
      },
      {
        "astId": 3198,
        "contract": "contracts/LimitOrderProtocol.sol:LimitOrderProtocol",
        "label": "orderParticipantMargin",
        "offset": 0,
        "slot": "9",
        "type": "t_mapping(t_bytes32,t_mapping(t_address,t_uint256))"
      },
      {
        "astId": 3202,
        "contract": "contracts/LimitOrderProtocol.sol:LimitOrderProtocol",
        "label": "isOrderDefaulted",
        "offset": 0,
        "slot": "10",
        "type": "t_mapping(t_bytes32,t_bool)"
      },
      {
        "astId": 3206,
        "contract": "contracts/LimitOrderProtocol.sol:LimitOrderProtocol",
        "label": "defaultedFunds",
        "offset": 0,
        "slot": "11",
        "type": "t_mapping(t_bytes32,t_uint256)"
      },
      {
        "astId": 3210,
        "contract": "contracts/LimitOrderProtocol.sol:LimitOrderProtocol",
        "label": "assetAlpha",
        "offset": 0,
        "slot": "12",
        "type": "t_mapping(t_address,t_int128)"
      },
      {
        "astId": 3214,
        "contract": "contracts/LimitOrderProtocol.sol:LimitOrderProtocol",
        "label": "assetBeta",
        "offset": 0,
        "slot": "13",
        "type": "t_mapping(t_address,t_int128)"
      },
      {
        "astId": 3218,
        "contract": "contracts/LimitOrderProtocol.sol:LimitOrderProtocol",
        "label": "assetSigma",
        "offset": 0,
        "slot": "14",
        "type": "t_mapping(t_address,t_int128)"
      },
      {
        "astId": 3222,
        "contract": "contracts/LimitOrderProtocol.sol:LimitOrderProtocol",
        "label": "assetLowerBoundMul",
        "offset": 0,
        "slot": "15",
        "type": "t_mapping(t_address,t_int128)"
      },
      {
        "astId": 3226,
        "contract": "contracts/LimitOrderProtocol.sol:LimitOrderProtocol",
        "label": "assetUpperBoundMul",
        "offset": 0,
        "slot": "16",
        "type": "t_mapping(t_address,t_int128)"
      }
    ],
    "types": {
      "t_address": {
        "encoding": "inplace",
        "label": "address",
        "numberOfBytes": "20"
      },
      "t_bool": {
        "encoding": "inplace",
        "label": "bool",
        "numberOfBytes": "1"
      },
      "t_bytes32": {
        "encoding": "inplace",
        "label": "bytes32",
        "numberOfBytes": "32"
      },
      "t_contract(OracleMock)9444": {
        "encoding": "inplace",
        "label": "contract OracleMock",
        "numberOfBytes": "20"
      },
      "t_int128": {
        "encoding": "inplace",
        "label": "int128",
        "numberOfBytes": "16"
      },
      "t_mapping(t_address,t_int128)": {
        "encoding": "mapping",
        "key": "t_address",
        "label": "mapping(address => int128)",
        "numberOfBytes": "32",
        "value": "t_int128"
      },
      "t_mapping(t_address,t_uint256)": {
        "encoding": "mapping",
        "key": "t_address",
        "label": "mapping(address => uint256)",
        "numberOfBytes": "32",
        "value": "t_uint256"
      },
      "t_mapping(t_bytes32,t_bool)": {
        "encoding": "mapping",
        "key": "t_bytes32",
        "label": "mapping(bytes32 => bool)",
        "numberOfBytes": "32",
        "value": "t_bool"
      },
      "t_mapping(t_bytes32,t_mapping(t_address,t_uint256))": {
        "encoding": "mapping",
        "key": "t_bytes32",
        "label": "mapping(bytes32 => mapping(address => uint256))",
        "numberOfBytes": "32",
        "value": "t_mapping(t_address,t_uint256)"
      },
      "t_mapping(t_bytes32,t_uint256)": {
        "encoding": "mapping",
        "key": "t_bytes32",
        "label": "mapping(bytes32 => uint256)",
        "numberOfBytes": "32",
        "value": "t_uint256"
      },
      "t_uint256": {
        "encoding": "inplace",
        "label": "uint256",
        "numberOfBytes": "32"
      }
    }
  }
}